:020000040800F2
:1000000000800120D5140008FD1300080314000827
:10001000091400080F14000815140008000000005F
:100020000000000000000000000000001B14000899
:1000300029140008000000003714000845140008C7
:1000400025150008251500082515000825150008A8
:100050002515000825150008251500082515000898
:100060002515000825150008251500082515000888
:100070002515000825150008251500082515000878
:10008000511400082515000825150008000000007F
:10009000000000000000000000000000251500081E
:1000A0002515000825150008251500082515000848
:1000B0002515000825150008251500082515000838
:1000C0002515000825150008251500082515000828
:1000D00025150008651400087914000800000000C8
:1000E0008D140008251500082515000800000000E3
:1000F00000000000000000000000000025150008BE
:100100000000000025150008251500082515000829
:1001100000000000000000000000000000000000DF
:1001200025150008251500089D1400082515000850
:10013000251500080000000000000000000000007D
:10014000000000000000000000000000251500086D
:100150002515000825150008251500082515000897
:10016000251500082515000800000000000000000B
:10017000000000000000000000000000000000007F
:10018000000000002515000800000000000000002D
:040190002515000829
:1001940010B5054C237833B9044B13B10448AFF3BD
:1001A40000800123237010BD7400002000000000B3
:1001B400484D000808B5034B1BB103490348AFF38E
:1001C400008008BD0000000078000020484D0008B1
:1001D400034613F8012B002AFBD1181A0138704783
:1001E40053B94AB9002908BF00281CBF4FF0FF319A
:1001F4004FF0FF3000F074B9ADF1080C6DE904CE96
:1002040000F006F8DDF804E0DDE9022304B07047ED
:100214002DE9F047089D04468E46002B4DD18A42B5
:10022400944669D9B2FA82F252B101FA02F3C2F1E8
:10023400200120FA01F10CFA02FC41EA030E944079
:100244004FEA1C48210CBEFBF8F61FFA8CF708FB9A
:1002540016E341EA034306FB07F199420AD91CEB72
:10026400030306F1FF3080F01F81994240F21C81A4
:10027400023E63445B1AA4B2B3FBF8F008FB1033EC
:1002840044EA034400FB07F7A7420AD91CEB040421
:1002940000F1FF3380F00A81A74240F207816444F1
:1002A400023840EA0640E41B00261DB1D440002376
:1002B400C5E900433146BDE8F0878B4209D9002DDA
:1002C40000F0EF800026C5E9000130463146BDE864
:1002D400F087B3FA83F6002E4AD18B4202D38242CE
:1002E40000F2F980841A61EB030301209E46002D7D
:1002F400E0D0C5E9004EDDE702B9FFDEB2FA82F2D2
:10030400002A40F09280A1EB0C014FEA1C471FFA2F
:100314008CFE0126200CB1FBF7F307FB131140EA16
:1003240001410EFB03F0884208D91CEB010103F1E3
:10033400FF3802D2884200F2CB804346091AA4B2A5
:10034400B1FBF7F007FB101144EA01440EFB00FE79
:10035400A64508D91CEB040400F1FF3102D2A645DE
:1003640000F2BB800846A4EB0E0440EA03409CE77D
:10037400C6F12007B34022FA07FC4CEA030C20FA2A
:1003840007F401FA06F31C43F9404FEA1C4900FA4A
:1003940006F3B1FBF9F8200C1FFA8CFE09FB1811C7
:1003A40040EA014108FB0EF0884202FA06F20BD93A
:1003B4001CEB010108F1FF3A80F08880884240F28A
:1003C4008580A8F102086144091AA4B2B1FBF9F0CE
:1003D40009FB101144EA014100FB0EFE8E4508D9C9
:1003E4001CEB010100F1FF346CD28E456AD902384E
:1003F400614440EA0840A0FB0294A1EB0E01A14233
:10040400C846A64656D353D05DB1B3EB080261EBA0
:100414000E0101FA07F722FA06F3F1401F43C5E97A
:10042400007100263146BDE8F087C2F12003D840B0
:100434000CFA02FC21FA03F3914001434FEA1C47F2
:100444001FFA8CFEB3FBF7F007FB10360B0C43EAE4
:10045400064300FB0EF69E4204FA02F408D91CEB94
:10046400030300F1FF382FD29E422DD90238634492
:100474009B1B89B2B3FBF7F607FB163341EA034132
:1004840006FB0EF38B4208D91CEB010106F1FF3881
:1004940016D28B4214D9023E6144C91A46EA004678
:1004A40038E72E46284605E70646E3E61846F8E60A
:1004B4004B45A9D2B9EB020864EB0C0E0138A3E753
:1004C4004646EAE7204694E74046D1E7D0467BE734
:1004D400023B614432E7304609E76444023842E7AC
:1004E400704700BF80B483B000AF0346FB80FB8835
:1004F400B3F5005F0CD1094B1B68022B05DC074BDD
:100504001B680133054A136002E0044B00221A60A1
:1005140000BF0C37BD465DF8047B704740030020E4
:1005240084B080B485B000AF07F1180C8CE80F00DC
:100534005523FB607D23BB6019237B60BB69FA688C
:100544005A6300BF1437BD465DF8047B04B070479E
:10055400F0B5A1B010AF00F0E5FF00F00DF900F028
:100564000FFC00F0D7FB00F0ABFB00F019FB00F030
:10057400C1F900F099FA00F079FB00F069F900F094
:100584003BFA0C216C4802F00BFE00216B4802F090
:1005940007FE0C216A4802F003FE0C21694802F0B0
:1005A400FFFD694B07F124041D460FCD0FC495E8E8
:1005B4000300206004342170644B07F114040FCB52
:1005C40007C42380624A07F10C0392E80300186011
:1005D4000433197007F1110300221A809A705D4BDD
:1005E4001B68032B6CD801A252F823F00106000803
:1005F4002D060008590600088B0600080122012177
:10060400554802F099F84D4B1B6832225A634C4B03
:100614001B685A221A6407F10C03504A92E803003B
:100624001860043319804BE0002201214A4802F08B
:1006340083F8424B1B6864225A63414B1B686E2249
:100644001A6407F10C03464A92E803001860043365
:10065400198035E0394B1B68C8225A63384B1B6834
:10066400AA221A6401213C4802F07FF84FF4C870B2
:1006740000F0CAFF07F10C033A4A92E8030018603D
:10068400043319801CE007F10C03374A92E8030095
:10069400186004331980294E00230E936D4606F129
:1006A40010040FCC0FC50FCC0FC50FCC0FC594E8A9
:1006B400030085E8030096E80F00FFF731FF00BF51
:1006C40039464FF416730A22284803F0ACFA3B4625
:1006D400184604F075FAF8630A23042224492348CF
:1006E40003F00FFA3B461846FFF772FD03469AB231
:1006F40039460A231D4803F004FA0A2302221D493D
:100704001A4803F0FEF907F10C031846FFF760FDE1
:1007140003469AB207F10C010A23144803F0F1F9D5
:100724000A2302221349114803F0EBF94FF4FA703B
:1007340000F06AFF53E700BFD8000020200100202A
:1007440068010020B0010020884D0008A04D000879
:10075400B04D00084003002000000240604D000836
:10076400684D0008704D0008784D0008F80100201D
:10077400804D0008844D000880B594B000AF07F1A7
:10078400200330220021184604F048FA07F10C0334
:1007940000221A605A609A60DA601A610023BB6012
:1007A400294B1B6C284A43F080531364264B1B6C63
:1007B40003F08053BB60BB6800237B60234B1B6842
:1007C40023F44043214A43F4004313601F4B1B6846
:1007D40003F440437B607B6802233B620123FB629A
:1007E40010233B630223BB630023FB6310233B649E
:1007F4004FF4A8737B640423BB640723FB6407F1F1
:100804002003184601F0E4FF0346002B01D000F05A
:100814005FFB0F23FB6002233B6100237B614FF4EA
:100824008053BB610023FB6107F10C0302211846CE
:1008340002F046FA0346002B01D000F049FB00BF4A
:100844005037BD4680BD00BF0038024000700040F4
:1008540080B584B000AF3B4600221A605A609A60AB
:10086400DA60214B214A1A601F4B4FF480325A60E0
:100874001D4B00229A601C4B00221A611A4B002265
:100884001A76194B002283F82020174B0022DA62D3
:10089400154B174A9A62144B0022DA60124B01225C
:1008A400DA61114B002283F830200F4B01225A6188
:1008B4000D4800F0CDFE0346002B01D000F008FBEC
:1008C40001233B6001237B600023BB603B46194648
:1008D400054800F001FF0346002B01D000F0F8FAB0
:1008E40000BF1037BD4680BD9000002000200140AD
:1008F4000100000F80B592B000AF07F14003002261
:100904001A605A6007F1240300221A605A609A6040
:10091400DA601A615A619A613B1D2022002118464F
:1009240004F07CF9324B334A1A60314B4FF4527263
:100934005A602F4B00229A602D4B4FF47A72DA6082
:100944002B4B00221A612A4B00225A61284B802229
:100954009A61274802F0D4FB0346002B01D000F033
:10096400B7FA00233B6400237B6407F14003194674
:100974001F4802F0B9FF0346002B01D000F0A8FA8B
:1009840060237B620023BB620023FB6200237B6342
:100994000023BB630023FB6307F124030C221946E5
:1009A400134802F0ADFC0346002B01D000F090FA8E
:1009B40000237B600023BB600023FB6000233B61BA
:1009C40000237B614FF40053BB6100233B623B1D5A
:1009D4001946074802F0F6FF0346002B01D000F049
:1009E40077FA034800F048FB00BF4837BD4680BD96
:1009F400D80000200000014080B58AB000AF07F1A4
:100A0400200300221A605A603B1D00221A605A60BB
:100A14009A60DA601A615A619A61224B4FF08042FF
:100A24001A60204BD2225A601E4B00229A601D4B42
:100A34004FF47A62DA601B4B00221A61194B802250
:100A44009A61184802F05CFB0346002B01D000F0C9
:100A54003FFA00233B6200237B6207F1200319461F
:100A6400104802F041FF0346002B01D000F030FA99
:100A740060237B600023BB600023FB6000237B6159
:100A84003B1D00221946074802F03AFC0346002B9E
:100A940001D000F01DFA034800F0EEFA00BF283739
:100AA400BD4680BD2001002080B58AB000AF07F1AB
:100AB400200300221A605A603B1D00221A605A600B
:100AC4009A60DA601A615A619A61334B334A1A6048
:100AD400314B4FF452725A602F4B00229A602E4BC6
:100AE4004FF47A72DA602C4B00221A612A4B80226E
:100AF4009A61294802F004FB0346002B01D000F060
:100B0400E7F900233B6200237B6207F120031946C7
:100B1400214802F0E9FE0346002B01D000F0D8F989
:100B240060237B600023BB600023FB6000237B61A8
:100B34003B1D00221946184802F0E2FB0346002B35
:100B440001D000F0C5F93B1D04221946124802F0F9
:100B5400D7FB0346002B01D000F0BAF93B1D082255
:100B640019460D4802F0CCFB0346002B01D000F0DF
:100B7400AFF93B1D0C221946074802F0C1FB03469E
:100B8400002B01D000F0A4F9034800F075FA00BF6F
:100B94002837BD4680BD00BF680100200004004026
:100BA40080B58AB000AF07F1200300221A605A60B2
:100BB4003B1D00221A605A609A60DA601A615A6119
:100BC4009A61284B284A1A60264B4FF452725A6095
:100BD400244B00229A60234B4FF47A72DA60214B43
:100BE40000221A611F4B80229A611E4802F088FA83
:100BF4000346002B01D000F06BF900233B62002375
:100C04007B6207F120031946164802F06DFE034685
:100C1400002B01D000F05CF960237B600023BB60F3
:100C24000023FB6000237B613B1D002219460D4815
:100C340002F066FB0346002B01D000F049F93B1D8E
:100C440008221946074802F05BFB0346002B01D03B
:100C540000F03EF9034800F00FFA00BF2837BD4604
:100C640080BD00BFB00100200008004080B500AF87
:100C7400114B124A1A60104B4FF4E1325A600E4B7A
:100C840000229A600C4B0022DA600B4B00221A619E
:100C9400094B0C225A61084B00229A61064B002230
:100CA400DA61054802F0E0FE0346002B01D000F0B3
:100CB4000FF900BF80BD00BFF80100200010014003
:100CC40080B500AF114B124A1A60104B4FF4165204
:100CD4005A600E4B00229A600C4B0022DA600B4BD8
:100CE40000221A61094B0C225A61084B00229A61B6
:100CF400064B0022DA61054802F0B6FE0346002BDB
:100D040001D000F0E5F800BF80BD00BF3C02002028
:100D14000044004080B582B000AF00237B60174BD5
:100D24001B6B164A43F480031363144B1B6B03F4CD
:100D340080037B607B6800233B60104B1B6B0F4A76
:100D440043F4001313630D4B1B6B03F400133B605C
:100D54003B6800220021102000F0B7FF102000F0B3
:100D6400D0FF002200213A2000F0AFFF3A2000F02B
:100D7400C8FF00BF0837BD4680BD00BF0038024031
:100D840080B58AB000AF07F1140300221A605A60DC
:100D94009A60DA601A6100233B613B4B1B6B3A4A51
:100DA40043F004031363384B1B6B03F004033B61F0
:100DB4003B690023FB60344B1B6B334A43F08003D5
:100DC4001363314B1B6B03F08003FB60FB68002350
:100DD400BB602D4B1B6B2C4A43F0010313632A4B5E
:100DE4001B6B03F00103BB60BB6800237B60264BD5
:100DF4001B6B254A43F002031363234B1B6B03F065
:100E040002037B607B6800220221204801F094FCED
:100E1400002201211E4801F08FFC4FF400537B6136
:100E24004FF40413BB610023FB6107F1140319465B
:100E3400164801F0FDFA02237B610123BB61002304
:100E4400FB6100233B6207F1140319460F4801F0CC
:100E5400EFFA01237B610123BB610023FB610023C3
:100E64003B6207F114031946094801F0E1FA002234
:100E74000021282000F029FF282000F042FF00BFB5
:100E84002837BD4680BD00BF00380240000802403C
:100E94000000024080B582B000AF78600948FFF7D7
:100EA40097F903469AB20A230649074802F029FE35
:100EB4000A2303220549044802F023FE00BF083731
:100EC400BD4680BD44030020F8010020000000203E
:100ED40080B400AF72B600BFFEE7000080B582B0F8
:100EE40000AF00237B60104B5B6C0F4A43F48043DC
:100EF40053640D4B5B6C03F480437B607B6800237D
:100F04003B60094B1B6C084A43F080531364064B47
:100F14001B6C03F080533B603B68072000F0CAFE63
:100F240000BF0837BD4680BD0038024080B58AB096
:100F340000AF786007F1140300221A605A609A60C7
:100F4400DA601A617B681B68174A934227D1002331
:100F54003B61164B5B6C154A43F480735364134B2B
:100F64005B6C03F480733B613B690023FB600F4BB4
:100F74001B6B0E4A43F0010313630C4B1B6B03F012
:100F84000103FB60FB6802237B610323BB61002335
:100F9400FB6107F114031946054801F049FA00BF43
:100FA4002837BD4680BD00BF002001400038024004
:100FB4000000024080B487B000AF78607B681B6893
:100FC400294A93420ED100237B61284B5B6C274A4C
:100FD40043F001035364254B5B6C03F001037B6115
:100FE4007B693AE07B681B68B3F1804F0ED1002324
:100FF4003B611E4B1B6C1D4A43F0010313641B4BE6
:101004001B6C03F001033B613B6926E07B681B68B2
:10101400174A93420ED10023FB60144B1B6C134AF6
:1010240043F002031364114B1B6C03F00203FB60D7
:10103400FB6812E07B681B680E4A93420DD10023C3
:10104400BB600A4B1B6C094A43F004031364074B4F
:101054001B6C03F00403BB60BB6800BF1C37BD46B8
:101064005DF8047B704700BF000001400038024077
:10107400000400400008004080B58CB000AF7860E8
:1010840007F11C0300221A605A609A60DA601A6140
:101094007B681B68584A93421FD10023BB61574B9E
:1010A4001B6B564A43F001031363544B1B6B03F051
:1010B4000103BB61BB694FF40063FB6102233B6224
:1010C40000237B620023BB620123FB6207F11C0344
:1010D40019464B4801F0ACF98AE07B681B68B3F110
:1010E400804F1ED100237B61444B1B6B434A43F06A
:1010F40001031363414B1B6B03F001037B617B69A9
:101104002023FB6102233B6200237B620023BB623A
:101114000123FB6207F11C031946394801F088F9E1
:1011240066E07B681B68374A93423DD100233B61EC
:10113400324B1B6B314A43F0010313632F4B1B6B80
:1011440003F001033B613B690023FB602B4B1B6BEA
:101154002A4A43F004031363284B1B6B03F0040374
:10116400FB60FB688023FB6102233B6200237B62FC
:101174000023BB620223FB6207F11C0319462048CB
:1011840001F056F94FF45073FB6102233B620023D4
:101194007B620023BB620223FB6207F11C03194636
:1011A400194801F045F923E07B681B68174A93420C
:1011B4001ED10023BB60114B1B6B104A43F002038A
:1011C40013630E4B1B6B03F00203BB60BB684FF44D
:1011D400A073FB6102233B6200237B620023BB629A
:1011E4000223FB6207F11C031946094801F020F9A8
:1011F40000BF3037BD4680BD0000014000380240CA
:1012040000000240000400400008024000080040C2
:101214000004024080B58CB000AF786007F11C0375
:1012240000221A605A609A60DA601A617B681B684F
:10123400694A934264D10023BB61684B5B6C674A83
:1012440043F010035364654B5B6C03F01003BB6104
:10125400BB6900237B61614B1B6B604A43F0010354
:1012640013635E4B1B6B03F001037B617B694FF4DB
:10127400C063FB6102233B6200237B620323BB62E6
:101284000723FB6207F11C031946554801F0D0F807
:10129400544B554A1A60534B4FF000625A60514BFD
:1012A40000229A604F4B0022DA604E4B4FF480626A
:1012B4001A614C4B00225A614A4B00229A61494BF5
:1012C4004FF48072DA61474B00221A62454B0022C8
:1012D4005A62444800F030FD0346002B01D0FFF76A
:1012E400F7FD7B683F4A9A633E4A7B68936300221A
:1012F4000021252000F0E9FC252000F002FD66E035
:101304007B681B68394A934261D100233B61334BAC
:101314001B6C324A43F400331364304B1B6C03F4EC
:1013240000333B613B690023FB602C4B1B6B2B4A56
:1013340043F001031363294B1B6B03F00103FB60B0
:10134400FB680C23FB6102233B6200237B620023C6
:10135400BB620723FB6207F11C031946204801F016
:1013640067F8234B234A1A60214B4FF000625A60FE
:101374001F4B00229A601E4B0022DA601C4B4FF474
:1013840080621A611A4B00225A61194B00229A6139
:10139400174B0022DA61164B00221A62144B00220A
:1013A4005A62134800F0C8FC0346002B01D0FFF733
:1013B4008FFD7B680E4A9A630D4A7B689363002213
:1013C4000021262000F081FC262000F09AFC00BFBA
:1013D4003037BD4680BD00BF0010014000380240D8
:1013E40000000240800200204064024000440040AB
:1013F400E00200208860024080B400AFFEE780B4C1
:1014040000AFFEE780B400AFFEE780B400AFFEE7B4
:1014140080B400AFFEE780B400AF00BFBD465DF806
:10142400047B704780B400AF00BFBD465DF8047B09
:10143400704780B400AF00BFBD465DF8047B7047C1
:1014440080B500AF00F0C0F800BF80BD80B500AF2C
:10145400024800F0B1FD00BF80BD00BFE0020020E3
:1014640080B500AF024802F081FC00BF80BD00BF20
:10147400F801002080B500AF024802F077FC00BFFD
:1014840080BD00BF3C02002080B500AF4FF4005087
:1014940001F086F900BF80BD80B500AF024800F0BE
:1014A4008BFD00BF80BD00BF8002002080B400AF70
:1014B400064BD3F88830054A43F47003C2F88830E9
:1014C40000BFBD465DF8047B704700BF00ED00E03F
:1014D400DFF834D00D480E490E4A002302E0D458F8
:1014E400C4500433C4188C42F9D30B4A0B4C002368
:1014F40001E013600432A242FBD3FFF7D7FF03F0ED
:1015040069FBFFF725F870470080012000000020E8
:1015140074000020004F0008740000205C030020C9
:10152400FEE7000080B500AF0E4B1B680D4A43F484
:10153400007313600B4B1B680A4A43F48063136007
:10154400084B1B68074A43F480731360032000F0C0
:10155400B1FB002000F008F8FFF7C0FC0023184698
:1015640080BD00BF003C024080B582B000AF78600F
:10157400124B1A68124B1B7819464FF47A73B3FB5B
:10158400F1F3B2FBF3F3184600F0C9FB0346002B5A
:1015940001D001230EE07B680F2B0AD80022796862
:1015A4004FF0FF3000F091FB064A7B681360002384
:1015B40000E0012318460837BD4680BD0400002022
:1015C4000C0000200800002080B400AF064B1B78FC
:1015D4001A46064B1B681344044A136000BFBD46F9
:1015E4005DF8047B704700BF0C0000205803002006
:1015F40080B400AF034B1B681846BD465DF8047BFE
:10160400704700BF5803002080B584B000AF7860F5
:10161400FFF7EEFFB8607B68FB60FB68B3F1FF3F48
:1016240005D00A4B1B781A46FB681344FB6000BFC5
:10163400FFF7DEFF0246BB68D31AFA689A42F7D86E
:1016440000BF00BF1037BD4680BD00BF0C000020A6
:1016540080B584B000AF78600023FB737B68002BF7
:1016640001D1012333E07B681B6C002B09D178681E
:10167400FFF75CFC7B6800225A647B68002283F8D5
:101684003C207B681B6C03F01003002B18D17B6893
:101694001B6C23F4885323F0020343F002027B689B
:1016A4001A64786800F03AF97B6800225A647B680F
:1016B4001B6C23F0030343F001027B681A6401E00E
:1016C4000123FB737B68002283F83C20FB7B1846D4
:1016D4001037BD4680BD000080B485B000AF78608F
:1016E40039600023BB607B6893F83C30012B01D147
:1016F400022305E17B68012283F83C203B681B68D8
:10170400092B25D97B681B68D9683B681B689BB289
:101714001A4613465B0013441E3B072202FA03F3E6
:10172400DA437B681B680A40DA607B681B68D96807
:101734003B689A683B681B689BB2184603465B008B
:1017440003441E3B9A407B681B680A43DA6022E02C
:101754007B681B6819693B681B689BB21A46134671
:101764005B001344072202FA03F3DA437B681B6825
:101774000A401A617B681B6819693B689A683B6870
:101784001B689BB2184603465B0003449A407B687F
:101794001B680A431A613B685B68062B24D87B6884
:1017A4001B68596B3B685A6813469B001344053BFE
:1017B4001F2202FA03F3DA437B681B680A405A6368
:1017C4007B681B68596B3B681B689BB218463B6877
:1017D4005A6813469B001344053B00FA03F27B68E6
:1017E4001B680A435A634CE03B685B680C2B24D8A3
:1017F4007B681B68196B3B685A6813469B0013444B
:10180400233B1F2202FA03F3DA437B681B680A4076
:101814001A637B681B68196B3B681B689BB218468C
:101824003B685A6813469B001344233B00FA03F2B7
:101834007B681B680A431A6323E07B681B68D96AC8
:101844003B685A6813469B001344413B1F2202FA2B
:1018540003F3DA437B681B680A40DA627B681B681F
:10186400D96A3B681B689BB218463B685A681346A2
:101874009B001344413B00FA03F27B681B680A4354
:10188400DA62224BFB607B681B68214A934209D1D0
:101894003B681B68122B05D1FB685B6843F480022C
:1018A400FB685A607B681B68194A934223D13B68E2
:1018B4001B68102B03D03B681B68112B1BD1FB68E2
:1018C4005B6843F40002FB685A603B681B68102B9A
:1018D40011D1104B1B68104AA2FB03239A0C134628
:1018E4009B0013445B00BB6002E0BB68013BBB6030
:1018F400BB68002BF9D17B68002283F83C200023CD
:1019040018461437BD465DF8047B70470023014038
:10191400002001400400002083DE1B4380B485B016
:1019240000AF7860794BFB60FB685B6823F440325E
:10193400FB685A60FB685A687B685B681A43FB68FB
:101944005A607B681B685A687B681B6822F4807243
:101954005A607B681B6859687B681B691A027B683C
:101964001B680A435A607B681B685A687B681B685B
:1019740022F040725A607B681B6859687B689A68D9
:101984007B681B680A435A607B681B689A687B689B
:101994001B6822F400629A607B681B6899687B6804
:1019A400DA687B681B680A439A607B689B6A584ABA
:1019B400934222D07B681B689A687B681B6822F07C
:1019C40070629A607B681B6899687B689A6A7B6816
:1019D4001B680A439A607B681B689A687B681B686B
:1019E40022F040529A607B681B6899687B68DA6AC7
:1019F4007B681B680A439A600FE07B681B689A68DF
:101A04007B681B6822F070629A607B681B689A6826
:101A14007B681B6822F040529A607B681B689A6856
:101A24007B681B6822F002029A607B681B689968D5
:101A34007B681B7E5A007B681B680A439A607B683C
:101A440093F82030002B1BD07B681B685A687B6896
:101A54001B6842F400625A607B681B685A687B68A2
:101A64001B6822F460425A607B681B6859687B6873
:101A74005B6A013B5A037B681B680A435A6007E0B0
:101A84007B681B685A687B681B6822F400625A6092
:101A94007B681B68DA6A7B681B6822F47002DA626E
:101AA4007B681B68D96A7B68DB69013B1A057B6824
:101AB4001B680A43DA627B681B689A687B681B6848
:101AC40022F400729A607B681B6899687B6893F8BB
:101AD40030305A027B681B680A439A607B681B6833
:101AE4009A687B681B6822F480629A607B681B6832
:101AF40099687B685B699A027B681B680A439A60F1
:101B040000BF1437BD465DF8047B704700230140D5
:101B14000100000F80B485B000AF78607B6803F0EB
:101B24000703FB600C4BDB68BB60BA684FF6FF032E
:101B34001340BB60FB681A02BB68134343F0BF63E6
:101B440043F40033BB60044ABB68D36000BF14375E
:101B5400BD465DF8047B704700ED00E080B400AF43
:101B6400044BDB681B0A03F007031846BD465DF807
:101B7400047B704700ED00E080B483B000AF0346FF
:101B8400FB7197F90730002B0BDBFB7903F01F0285
:101B9400074997F907305B09012000FA02F241F87E
:101BA400232000BF0C37BD465DF8047B704700BF9F
:101BB40000E100E080B483B000AF03463960FB71FC
:101BC40097F90730002B0ADB3B68DAB20C4997F926
:101BD40007301201D2B20B4483F800230AE03B68B9
:101BE400DAB20849FB7903F00F03043B1201D2B2C5
:101BF4000B441A7600BF0C37BD465DF8047B704772
:101C040000E100E000ED00E080B489B000AFF860CE
:101C1400B9607A60FB6803F00703FB61FB69C3F1F9
:101C24000703042B28BF0423BB61FB690433062B81
:101C340002D9FB69033B00E000237B614FF0FF32D4
:101C4400BB6902FA03F3DA43BB681A407B699A4022
:101C54004FF0FF317B6901FA03F3D9437B680B40F2
:101C6400134318462437BD465DF8047B70470000D3
:101C740080B582B000AF78607B68013BB3F1807FB0
:101C840001D301230FE00A4A7B68013B53600F2113
:101C94004FF0FF30FFF78EFF054B00229A60044B94
:101CA40007221A60002318460837BD4680BD00BFCE
:101CB40010E000E080B582B000AF78607868FFF78C
:101CC40029FF00BF0837BD4680BD80B586B000AF90
:101CD4000346B9607A60FB7300237B61FFF73EFF24
:101CE40078617A68B9687869FFF78EFF024697F9D8
:101CF4000F3011461846FFF75DFF00BF1837BD4689
:101D040080BD80B582B000AF0346FB7197F9073000
:101D14001846FFF731FF00BF0837BD4680BD80B5C8
:101D240082B000AF78607868FFF7A2FF03461846D8
:101D34000837BD4680BD000080B586B000AF78602E
:101D440000237B61FFF754FC38617B68002B01D1D1
:101D5400012399E07B68022283F835207B68002206
:101D640083F834207B681B681A687B681B6822F040
:101D740001021A600FE0FFF73BFC02463B69D31AED
:101D8400052B08D97B6820225A657B68032283F8D7
:101D94003520032378E07B681B681B6803F001038C
:101DA400002BE8D17B681B681B687B617A69384B20
:101DB40013407B617B685A687B689B681A437B6825
:101DC400DB681A437B681B691A437B685B691A43A7
:101DD4007B689B691A437B68DB691A437B681B6ACF
:101DE40013437A6913437B617B685B6A042B07D1D5
:101DF4007B68DA6A7B681B6B13437A6913437B61E4
:101E04007B681B687A691A607B681B685B697B6105
:101E14007B6923F007037B617B685B6A7A69134300
:101E24007B617B685B6A042B17D17B689B6A7A6948
:101E340013437B617B68DB6A002B0ED0786800F06B
:101E44007BFA0346002B08D07B6840225A657B68E6
:101E5400012283F83520012316E07B681B687A6928
:101E64005A61786800F032FA0346FB607B68DB6DE8
:101E74003F229A40FB689A607B6800225A657B681F
:101E8400012283F83520002318461837BD4680BD4B
:101E94003F8010F080B584B000AF78607B689B6DA4
:101EA400FB60FFF7A5FBB8607B6893F83530DBB2C5
:101EB400022B08D07B6880225A657B68002283F855
:101EC4003420012352E07B681B681A687B681B6816
:101ED40022F016021A607B681B685A697B681B68CB
:101EE40022F080025A617B681B6C002B03D17B6853
:101EF4009B6C002B07D07B681B681A687B681B6887
:101F040022F008021A607B681B681A687B681B68E9
:101F140022F001021A6013E0FFF76AFB0246BB6875
:101F2400D31A052B0CD97B6820225A657B680322BF
:101F340083F835207B68002283F83420032315E0DE
:101F44007B681B681B6803F00103002BE4D17B68EA
:101F5400DB6D3F229A40FB689A607B68012283F81C
:101F640035207B68002283F834200023184610377C
:101F7400BD4680BD80B483B000AF78607B6893F8C1
:101F84003530DBB2022B04D07B6880225A650123F2
:101F94000CE07B68052283F835207B681B681A688F
:101FA4007B681B6822F001021A60002318460C3774
:101FB400BD465DF8047B704780B586B000AF78609D
:101FC4000023BB608E4B1B688E4AA2FB03239B0A33
:101FD4007B617B689B6D3B613B691B68FB607B6835
:101FE400DB6D08229A40FB681340002B1AD07B68F3
:101FF4001B681B6803F00403002B13D07B681B6869
:102004001A687B681B6822F004021A607B68DB6D27
:1020140008229A403B699A607B685B6D43F0010239
:102024007B685A657B68DB6D01229A40FB6813402C
:10203400002B12D07B681B685B6903F08003002BC4
:102044000BD07B68DB6D01229A403B699A607B6808
:102054005B6D43F002027B685A657B68DB6D04228A
:102064009A40FB681340002B12D07B681B681B68E6
:1020740003F00203002B0BD07B68DB6D04229A4033
:102084003B699A607B685B6D43F004027B685A6528
:102094007B68DB6D10229A40FB681340002B43D011
:1020A4007B681B681B6803F00803002B3CD07B682B
:1020B400DB6D10229A403B699A607B681B681B6841
:1020C40003F48023002B18D07B681B681B6803F47F
:1020D4000023002B08D17B681B6C002B24D07B6869
:1020E4001B6C786898471FE07B689B6C002B1BD0A7
:1020F4007B689B6C7868984716E07B681B681B6854
:1021040003F48073002B07D17B681B681A687B6813
:102114001B6822F008021A607B681B6C002B03D03A
:102124007B681B6C786898477B68DB6D20229A403B
:10213400FB681340002B00F08F807B681B681B68D2
:1021440003F01003002B00F087807B68DB6D2022F6
:102154009A403B699A607B6893F83530DBB2052B73
:1021640036D17B681B681A687B681B6822F01602EC
:102174001A607B681B685A697B681B6822F08002BE
:102184005A617B681B6C002B03D17B689B6C002B12
:1021940007D07B681B681A687B681B6822F00802FA
:1021A4001A607B68DB6D3F229A403B699A607B68CA
:1021B400012283F835207B68002283F834207B6871
:1021C4001B6D002B7ED07B681B6D7868984779E087
:1021D4007B681B681B6803F48023002B1DD07B687D
:1021E4001B681B6803F40023002B0DD17B685B6C18
:1021F400002B31D07B685B6C786898472CE000BF7B
:1022040004000020B5814E1B7B68DB6B002B23D0C0
:102214007B68DB6B786898471EE07B681B681B68EB
:1022240003F48073002B0FD17B681B681A687B68EA
:102234001B6822F010021A607B68012283F83520A3
:102244007B68002283F834207B68DB6B002B03D08F
:102254007B68DB6B786898477B685B6D002B32D0BA
:102264007B685B6D03F00103002B22D07B680522A1
:1022740083F835207B681B681A687B681B6822F02A
:1022840001021A60BB680133BB607A699A4207D3C2
:102294007B681B681B6803F00103002BF2D100E08C
:1022A40000BF7B68012283F835207B68002283F815
:1022B40034207B68DB6C002B05D07B68DB6C786892
:1022C400984700E000BF1837BD4680BD80B485B094
:1022D40000AF78607B681B68DBB2103B144AA2FB3A
:1022E40003231B09FB60134AFB6813441B781A463B
:1022F4007B68DA65FB68032B09D97B681B6823F4C8
:102304007F7323F003031A1D7B689A6507E07B68DB
:102314001B6823F47F7323F003037A6893657B6857
:102324009B6D18461437BD465DF8047B704700BFAB
:10233400ABAAAAAAE44D000880B485B000AF7860C7
:102344000023FB737B689B6ABB607B689B69002BE3
:102354001FD1BB68032B56D801A252F823F000BF4B
:102364007523000887230008752300080B24000840
:102374007B68DB6A03F08073002B46D00123FB7378
:1023840043E07B68DB6AB3F1C07F40D10123FB7378
:102394003DE07B689B69B3F5005F21D1BB68032BEB
:1023A40037D801A252F823F0BD230008C323000844
:1023B400BD230008D52300080123FB7330E07B68AC
:1023C400DB6A03F08073002B25D00123FB7322E02A
:1023D4007B68DB6AB3F1C07F1FD10123FB731CE070
:1023E400BB68022B03D9BB68032B03D018E001237D
:1023F400FB7315E07B68DB6A03F08073002B0ED05F
:102404000123FB730BE000BF0AE000BF08E000BF3C
:1024140006E000BF04E000BF02E000BF00E000BF30
:10242400FB7B18461437BD465DF8047B704700BF3C
:1024340080B489B000AF7860396000237B610023E9
:102444003B610023BB610023FB6159E10122FB696D
:1024540002FA03F37B613B681B687A6913403B61B2
:102464003A697B699A4240F048813B685B6803F0B3
:102474000303012B05D03B685B6803F00303022BC5
:1024840030D17B689B68BB61FB695B00032202FA65
:1024940003F3DB43BA691340BB613B68DA68FB6949
:1024A4005B0002FA03F3BA691343BB617B68BA6940
:1024B4009A607B685B68BB610122FB6902FA03F3E3
:1024C400DB43BA691340BB613B685B681B0903F0DB
:1024D4000102FB6902FA03F3BA691343BB617B6827
:1024E400BA695A603B685B6803F00303032B17D097
:1024F4007B68DB68BB61FB695B00032202FA03F3C0
:10250400DB43BA691340BB613B689A68FB695B00B3
:1025140002FA03F3BA691343BB617B68BA69DA60F0
:102524003B685B6803F00303022B23D1FB69DA08E1
:102534007B68083253F82230BB61FB6903F0070360
:102544009B000F2202FA03F3DB43BA691340BB6119
:102554003B681A69FB6903F007039B0002FA03F363
:10256400BA691343BB61FB69DA087B680832B9694D
:1025740043F822107B681B68BB61FB695B00032284
:1025840002FA03F3DB43BA691340BB613B685B683F
:1025940003F00302FB695B0002FA03F3BA69134315
:1025A400BB617B68BA691A603B685B6803F44033BB
:1025B400002B00F0A2800023FB60574B5B6C564A53
:1025C40043F480435364544B5B6C03F48043FB60DB
:1025D400FB68524AFB699B08023352F82330BB6103
:1025E400FB6903F003039B000F2202FA03F3DB43AE
:1025F400BA691340BB617B68494A934219D07B682E
:10260400484A934213D07B68474A93420DD07B6873
:10261400464A934207D07B68454A934201D104233A
:1026240008E0072306E0032304E0022302E0012379
:1026340000E00023FA6902F0030292009340BA69B1
:102644001343BB613549FB699B080233BA6941F8FE
:102654002320384B9B68BB613B69DB43BA69134059
:10266400BB613B685B6803F48013002B03D0BA6939
:102674003B691343BB612F4ABB6993602D4BDB68F5
:10268400BB613B69DB43BA691340BB613B685B6870
:1026940003F40013002B03D0BA693B691343BB61F5
:1026A400244ABB69D360234B5B68BB613B69DB4352
:1026B400BA691340BB613B685B6803F40033002BC9
:1026C40003D0BA693B691343BB611A4ABB695360BF
:1026D400184B1B68BB613B69DB43BA691340BB61A0
:1026E4003B685B6803F48033002B03D0BA693B6911
:1026F4001343BB610F4ABB691360FB690133FB6180
:10270400FB690F2B7FF6A2AE00BF00BF2437BD4686
:102714005DF8047B704700BF003802400038014078
:10272400000002400004024000080240000C024085
:1027340000100240003C014080B483B000AF7860D8
:102744000B467B8013467B707B78002B03D07A8802
:102754007B689A6103E07B881A047B689A6100BFF6
:102764000C37BD465DF8047B704780B485B000AF7C
:1027740078600B467B807B685B69FB607A88FB68CA
:1027840013401A04FB68D9437B880B401A437B68C7
:102794009A6100BF1437BD465DF8047B70470000A2
:1027A40080B582B000AF0346FB80084B5A69FB88B2
:1027B4001340002B06D0054AFB885361FB8818465A
:1027C400FDF790FE00BF0837BD4680BD003C0140C8
:1027D40080B586B000AF78607B68002B01D10123FF
:1027E40067E27B681B6803F00103002B75D0884BFC
:1027F4009B6803F00C03042B0CD0854B9B6803F0FF
:102804000C03082B12D1824B5B6803F48003B3F5ED
:10281400800F0BD17E4B1B6803F40033002B5BD07D
:102824007B685B68002B57D1012342E27B685B68BD
:10283400B3F5803F06D1764B1B68754A43F4803369
:1028440013601DE07B685B68B3F5A02F0CD1704B5F
:102854001B686F4A43F4802313606D4B1B686C4AFA
:1028640043F4803313600BE0694B1B68684A23F41C
:1028740080331360664B1B68654A23F4802313601E
:102884007B685B68002B13D0FEF7B2FE386108E06A
:10289400FEF7AEFE02463B69D31A642B01D903232B
:1028A40007E25B4B1B6803F40033002BF0D014E009
:1028B400FEF79EFE386108E0FEF79AFE02463B6989
:1028C400D31A642B01D90323F3E1514B1B6803F49E
:1028D4000033002BF0D100E000BF7B681B6803F0DD
:1028E4000203002B63D04A4B9B6803F00C03002BBC
:1028F4000BD0474B9B6803F00C03082B1CD1444BB3
:102904005B6803F48003002B16D1414B1B6803F072
:102914000203002B05D07B68DB68012B01D0012367
:10292400C7E13B4B1B6823F0F8027B681B69DB00A3
:10293400374913430B603AE07B68DB68002B20D0F7
:10294400344B01221A60FEF753FE386108E0FEF7AB
:102954004FFE02463B69D31A022B01D90323A8E197
:102964002B4B1B6803F00203002BF0D0284B1B6891
:1029740023F0F8027B681B69DB00254913430B60D5
:1029840015E0244B00221A60FEF732FE386108E09D
:10299400FEF72EFE02463B69D31A022B01D903230C
:1029A40087E11B4B1B6803F00203002BF0D17B680B
:1029B4001B6803F00803002B36D07B685B69002B8F
:1029C40016D0154B01221A60FEF712FE386108E09A
:1029D400FEF70EFE02463B69D31A022B01D90323EC
:1029E40067E10B4B5B6F03F00203002BF0D01BE09D
:1029F400094B00221A60FEF7FBFD38610EE0FEF77A
:102A0400F7FD02463B69D31A022B07D9032350E191
:102A14000038024000004742800E4742884B5B6FFB
:102A240003F00203002BEAD17B681B6803F0040364
:102A3400002B00F097800023FB75814B1B6C03F087
:102A44008053002B0FD10023BB607D4B1B6C7C4A51
:102A540043F0805313647A4B1B6C03F08053BB60C8
:102A6400BB680123FB75774B1B6803F48073002B51
:102A740018D1744B1B68734A43F480731360FEF7D8
:102A8400B7FD386108E0FEF7B3FD02463B69D31A8F
:102A9400022B01D903230CE16A4B1B6803F48073F6
:102AA400002BF0D07B689B68012B06D1644B1B6F15
:102AB400634A43F0010313671CE07B689B68052BA2
:102AC4000CD15F4B1B6F5E4A43F0040313675C4BEE
:102AD4001B6F5B4A43F0010313670BE0584B1B6FFA
:102AE400574A23F001031367554B1B6F544A23F0D5
:102AF400040313677B689B68002B15D0FEF778FDF1
:102B040038610AE0FEF774FD02463B69D31A41F2CC
:102B14008832934201D90323CBE0494B1B6F03F066
:102B24000203002BEED014E0FEF762FD38610AE0E8
:102B3400FEF75EFD02463B69D31A41F288329342A6
:102B440001D90323B5E03E4B1B6F03F00203002BB6
:102B5400EED1FB7D012B05D1394B1B6C384A23F098
:102B6400805313647B689B69002B00F0A180344B75
:102B74009B6803F00C03082B5CD07B689B69022BD9
:102B840041D1314B00221A60FEF732FD386108E072
:102B9400FEF72EFD02463B69D31A022B01D903230B
:102BA40087E0274B1B6803F00073002BF0D17B6890
:102BB400DA697B681B6A1A437B685B6A9B011A4368
:102BC4007B689B6A5B08013B1B041A437B68DB6AD6
:102BD4001B061B4913434B601B4B01221A60FEF773
:102BE40007FD386108E0FEF703FD02463B69D31A8E
:102BF400022B01D903235CE0114B1B6803F0007323
:102C0400002BF0D054E0104B00221A60FEF7F0FCC9
:102C1400386108E0FEF7ECFC02463B69D31A022B4C
:102C240001D9032345E0064B1B6803F00073002B16
:102C3400F0D13DE07B689B69012B07D1012338E08B
:102C44000038024000700040600047421B4B5B6844
:102C5400FB607B689B69012B28D0FB6803F480022E
:102C64007B68DB699A4221D1FB6803F03F027B68F1
:102C74001B6A9A421AD1FA6847F6C07313407A68FD
:102C8400526A9201934211D1FB6803F440327B688B
:102C94009B6A5B08013B1B049A4207D1FB6803F063
:102CA40070627B68DB6A1B069A4201D0012300E054
:102CB400002318461837BD4680BD00BF00380240C7
:102CC40080B584B000AF786039607B68002B01D197
:102CD4000123CCE0684B1B6803F007033A689A426F
:102CE4000CD9654B3A68D2B21A70634B1B6803F077
:102CF40007033A689A4201D00123B8E07B681B6855
:102D040003F00203002B20D07B681B6803F004034C
:102D1400002B05D0594B9B68584A43F4E053936009
:102D24007B681B6803F00803002B05D0534B9B689A
:102D3400524A43F460439360504B9B6823F0F00283
:102D44007B689B684D4913438B607B681B6803F069
:102D54000103002B44D07B685B68012B07D1474BF0
:102D64001B6803F40033002B19D101237FE07B6837
:102D74005B68022B03D07B685B68032B07D13F4B56
:102D84001B6803F00073002B09D101236FE03B4B58
:102D94001B6803F00203002B01D1012367E0374BCA
:102DA4009B6823F003027B685B68344913438B60A0
:102DB400FEF71EFCF8600AE0FEF71AFC0246FB6808
:102DC400D31A41F28832934201D903234FE02B4BAB
:102DD4009B6803F00C027B685B689B009A42EBD112
:102DE400254B1B6803F007033A689A420CD2224B26
:102DF4003A68D2B21A70204B1B6803F007033A6892
:102E04009A4201D0012332E07B681B6803F004037B
:102E1400002B08D0194B9B6823F4E0527B68DB68D5
:102E2400164913438B607B681B6803F00803002B6F
:102E340009D0124B9B6823F460427B681B69DB005A
:102E44000E4913438B6000F021F802460B4B9B683C
:102E54001B0903F00F030A49CB5C22FA03F3094A66
:102E64001360094B1B681846FEF77EFB00231846C7
:102E74001037BD4680BD00BF003C02400038024010
:102E8400CC4D000804000020080000202DE9B04FBC
:102E940094B000AF00237B640023FB6400233B64F5
:102EA4000023BB64794B9B6803F00C03082B0DD003
:102EB400082B00F2E180002B02D0042B03D0DBE0CE
:102EC400734BBB64DBE0734BBB64D8E06F4B5B6854
:102ED40003F03F037B646D4B5B6803F48003002BBA
:102EE40063D06A4B5B689B090022BB63FA63BB6BCC
:102EF400C3F308033B6300237B63D7E90C452246F5
:102F04002B464FF000004FF00001590141EAD26115
:102F1400500102460B462146511A3961294663EB9A
:102F240001037B614FF000024FF00003D7E904ABCB
:102F340059468B01514643EA916351468A015146F1
:102F4400B2EB0108594663EB01094FF000024FF060
:102F540000034FEAC90343EA58734FEAC802904694
:102F64009946234618EB0303BB602B4649EB030346
:102F7400FB604FF000024FF00003D7E902452946F9
:102F84004B02214643EAD15321464A0210461946D0
:102F94007B6C0022BB62FA62D7E90A23FDF720F9B1
:102FA40002460B461346FB6458E0384B5B689B09AA
:102FB400002218461146C0F308033B6200237B62DB
:102FC400D7E9088942464B464FF000004FF0000114
:102FD400590141EAD261500102460B464146B2EB27
:102FE400010A494663EB010B4FF000024FF0000366
:102FF4004FEA8B1343EA9A634FEA8A12B2EB0A044C
:1030040063EB0B054FF000024FF00003EB0043EAC3
:103014005473E20014461D464346E3183B604B4696
:1030240045EB03037B604FF000024FF00003D7E948
:10303400004529468B02214643EA915321468A02E0
:10304400104619467B6C0022BB61FA61D7E906235E
:10305400FDF7C6F802460B461346FB640B4B5B6850
:103064001B0C03F0030301335B003B64FA6C3B6C01
:10307400B2FBF3F3BB6402E0054BBB6400BFBB6C63
:1030840018465037BD46BDE8B08F00BF0038024037
:103094000024F40000127A0080B400AF034B1B68D4
:1030A4001846BD465DF8047B704700BF040000204D
:1030B40080B500AFFFF7F0FF0246054B9B689B0A03
:1030C40003F007030349CB5C22FA03F3184680BDDF
:1030D40000380240DC4D000880B500AFFFF7DCFF8C
:1030E4000246054B9B685B0B03F007030349CB5C6B
:1030F40022FA03F3184680BD00380240DC4D000874
:1031040080B582B000AF78607B68002B01D10123C9
:1031140041E07B6893F83D30DBB2002B06D17B683D
:10312400002283F83C207868FDF744FF7B68022284
:1031340083F83D207B681A687B680433194610467F
:1031440000F0A0F97B68012283F846207B68012205
:1031540083F83E207B68012283F83F207B680122AC
:1031640083F840207B68012283F841207B68012298
:1031740083F842207B68012283F843207B68012284
:1031840083F844207B68012283F845207B68012270
:1031940083F83D20002318460837BD4680BD000053
:1031A40080B584B000AF786039603B68002B09D1EA
:1031B4007B6893F83E30DBB2012B14BF012300235C
:1031C400DBB222E03B68042B09D17B6893F83F30E3
:1031D400DBB2012B14BF01230023DBB215E03B68F3
:1031E400082B09D17B6893F84030DBB2012B14BF64
:1031F40001230023DBB208E07B6893F84130DBB2A3
:10320400012B14BF01230023DBB2002B01D00123C7
:1032140068E03B68002B04D17B68022283F83E20DF
:1032240013E03B68042B04D17B68022283F83F201F
:103234000BE03B68082B04D17B68022283F8402012
:1032440003E07B68022283F841207B681B6801222B
:103254003968184600F022FB7B681B68234A9342B6
:1032640007D17B681B685A6C7B681B6842F4004278
:103274005A647B681B681D4A934218D07B681B689C
:10328400B3F1804F13D07B681B68194A93420ED068
:103294007B681B68174A934209D07B681B68164AEF
:1032A400934204D07B681B68144A934211D17B6813
:1032B4001B689B6803F00703FB60FB68062B10D0B8
:1032C4007B681B681A687B681B6842F001021A60FD
:1032D40007E07B681B681A687B681B6842F0010280
:1032E4001A60002318461037BD4680BD0000014017
:1032F4000004004000080040000C00400040014071
:1033040080B586B000AFF860B9607A600023FB75C1
:10331400FB6893F83C30012B01D10223AEE0FB683B
:10332400012283F83C207B680C2B00F29F8001A2D1
:1033340052F823F06D33000871340008713400082A
:1033440071340008AD33000871340008713400088A
:1033540071340008EF330008713400087134000838
:10336400713400082F340008FB681B68B9681846DC
:1033740000F008F9FB681B689A69FB681B6842F057
:1033840008029A61FB681B689A69FB681B6822F053
:1033940004029A61FB681B689969BB681A69FB6837
:1033A4001B680A439A6164E0FB681B68B9681846A5
:1033B40000F04EF9FB681B689A69FB681B6842F4CD
:1033C40000629A61FB681B689A69FB681B6822F4B7
:1033D40080629A61FB681B689969BB681B691A0261
:1033E400FB681B680A439A6143E0FB681B68B96881
:1033F400184600F099F9FB681B68DA69FB681B68DA
:1034040042F00802DA61FB681B68DA69FB681B6832
:1034140022F00402DA61FB681B68D969BB681A6987
:10342400FB681B680A43DA6123E0FB681B68B96820
:10343400184600F0E3F9FB681B68DA69FB681B684F
:1034440042F40062DA61FB681B68DA69FB681B6896
:1034540022F48062DA61FB681B68D969BB681B6966
:103464001A02FB681B680A43DA6102E00123FB7558
:1034740000BFFB68002283F83C20FB7D1846183708
:10348400BD4680BD80B485B000AF786039607B688C
:103494001B68FB607B68344A93420FD07B68B3F1AE
:1034A400804F0BD07B68314A934207D07B68304A07
:1034B400934203D07B682F4A934208D1FB6823F0E0
:1034C4007003FB603B685B68FA681343FB607B68CE
:1034D400254A93421BD07B68B3F1804F17D07B6899
:1034E400224A934213D07B68214A93420FD07B68CF
:1034F400204A93420BD07B681F4A934207D07B68D3
:103504001E4A934203D07B681D4A934208D1FB684C
:1035140023F44073FB603B68DB68FA681343FB6089
:10352400FB6823F080023B685B691343FB607B68A4
:10353400FA681A603B689A687B68DA623B681A68C2
:103544007B689A627B68084A934203D13B681A6994
:103554007B681A637B6801225A6100BF1437BD4639
:103564005DF8047B704700BF000001400004004088
:1035740000080040000C00400040014000440140AD
:103584000048014080B487B000AF786039607B6840
:103594001B6A23F001027B681A627B681B6A7B61E9
:1035A4007B685B683B617B689B69FB60FB6823F01D
:1035B4007003FB60FB6823F00303FB603B681B683C
:1035C400FA681343FB607B6923F002037B613B6869
:1035D4009B687A6913437B617B681C4A93420CD1D4
:1035E4007B6923F008037B613B68DB687A691343DA
:1035F4007B617B6923F004037B617B68134A9342FC
:1036040011D13B6923F480733B613B6923F400735C
:103614003B613B685B693A6913433B613B689B6967
:103624003A6913433B617B683A695A607B68FA687C
:103634009A613B685A687B685A637B687A691A6244
:1036440000BF1C37BD465DF8047B70470000014095
:1036540080B487B000AF786039607B681B6A23F060
:1036640010027B681A627B681B6A7B617B685B68FB
:103674003B617B689B69FB60FB6823F4E043FB6070
:10368400FB6823F44073FB603B681B681B02FA6809
:103694001343FB607B6923F020037B613B689B68D9
:1036A4001B017A6913437B617B681E4A93420DD1E7
:1036B4007B6923F080037B613B68DB681B017A69CB
:1036C40013437B617B6923F040037B617B68154A6C
:1036D400934213D13B6923F480633B613B6923F438
:1036E40000633B613B685B699B003A6913433B6140
:1036F4003B689B699B003A6913433B617B683A6969
:103704005A607B68FA689A613B685A687B689A6376
:103714007B687A691A6200BF1C37BD465DF8047B7A
:10372400704700BF0000014080B487B000AF7860EC
:1037340039607B681B6A23F480727B681A627B6839
:103744001B6A7B617B685B683B617B68DB69FB6050
:10375400FB6823F07003FB60FB6823F00303FB604A
:103764003B681B68FA681343FB607B6923F40073AE
:103774007B613B689B681B027A6913437B617B68AE
:103784001D4A93420DD17B6923F400637B613B683E
:10379400DB681B027A6913437B617B6923F48063D2
:1037A4007B617B68144A934213D13B6923F48053B1
:1037B4003B613B6923F400533B613B685B691B013C
:1037C4003A6913433B613B689B691B013A691343A4
:1037D4003B617B683A695A607B68FA68DA613B68E6
:1037E4005A687B68DA637B687A691A6200BF1C379F
:1037F400BD465DF8047B70470000014080B487B08B
:1038040000AF786039607B681B6A23F480527B6860
:103814001A627B681B6A3B617B685B687B617B68BF
:10382400DB69FB60FB6823F4E043FB60FB6823F483
:103834004073FB603B681B681B02FA681343FB6020
:103844003B6923F400533B613B689B681B033A6963
:1038540013433B617B68104A934209D17B6923F48B
:1038640080437B613B685B699B017A6913437B619D
:103874007B687A695A607B68FA68DA613B685A68DF
:103884007B681A647B683A691A6200BF1C37BD46BC
:103894005DF8047B704700BF0000014080B487B02E
:1038A40000AFF860B9607A60BB6803F01F030122BF
:1038B40002FA03F37B61FB681A6A7B69DB431A40F3
:1038C400FB681A62FB681A6ABB6803F01F03796815
:1038D40001FA03F31A43FB681A6200BF1C37BD46A2
:1038E4005DF8047B7047000080B485B000AF786059
:1038F40039607B6893F83C30012B01D1022350E0FE
:103904007B68012283F83C207B68022283F83D20F7
:103914007B681B685B68FB607B681B689B68BB609B
:10392400FB6823F07003FB603B681B68FA68134371
:10393400FB607B681B68FA685A607B681B681C4ADA
:10394400934218D07B681B68B3F1804F13D07B6817
:103954001B68184A93420ED07B681B68164A934230
:1039640009D07B681B68154A934204D07B681B68A6
:10397400134A93420CD1BB6823F08003BB603B68BD
:103984005B68BA681343BB607B681B68BA689A605B
:103994007B68012283F83D207B68002283F83C2069
:1039A400002318461437BD465DF8047B704700BFFA
:1039B400000001400004004000080040000C0040EA
:1039C4000040014080B485B000AF786039600023C6
:1039D400FB607B6893F83C30012B01D102233DE06E
:1039E4007B68012283F83C20FB6823F0FF023B68DC
:1039F400DB681343FB60FB6823F440723B689B68FD
:103A04001343FB60FB6823F480623B685B681343E9
:103A1400FB60FB6823F400623B681B681343FB6094
:103A2400FB6823F480523B681B691343FB60FB680B
:103A340023F400523B685B691343FB60FB6823F487
:103A440080423B68DB691343FB607B681B68FA6850
:103A54005A647B68002283F83C20002318461437FC
:103A6400BD465DF8047B704780B582B000AF7860D6
:103A74007B68002B01D101233FE07B6893F83D3044
:103A8400DBB2002B06D17B68002283F83C207868E7
:103A9400FDF7C0FB7B68242283F83D207B681B680C
:103AA400DA687B681B6822F40052DA60786800F0F8
:103AB40013FE7B681B681A697B681B6822F49042BA
:103AC4001A617B681B685A697B681B6822F02A02AA
:103AD4005A617B681B68DA687B681B6842F4005291
:103AE400DA607B6800221A647B68202283F83D2018
:103AF4007B68202283F83E20002318460837BD4601
:103B040080BD80B58AB002AFF860B9603B601346EF
:103B1400FB8000237B61FB6893F83D30DBB2202BF4
:103B24007CD1BB68002B02D0FB88002B01D1012380
:103B340075E0FB6893F83C30012B01D102236EE061
:103B4400FB68012283F83C20FB6800221A64FB68AE
:103B5400212283F83D20FDF74BFD7861FB68FA884C
:103B64009A84FB68FA88DA84FB689B68B3F5805F03
:103B740008D1FB681B69002B04D10023FB61BB68DF
:103B8400BB6103E0BB68FB610023BB61FB680022EF
:103B940083F83C202AE03B6800937B690022802163
:103BA400F86800F091FB0346002B01D0032336E0B4
:103BB400FB69002B0BD1BB691B881A46FB681B6889
:103BC400C2F308025A60BB690233BB6107E0FB69B8
:103BD4001A78FB681B685A60FB690133FB61FB6858
:103BE400DB8C9BB2013B9AB2FB68DA84FB68DB8C0A
:103BF4009BB2002BCFD13B6800937B69002240210C
:103C0400F86800F061FB0346002B01D0032306E0B3
:103C1400FB68202283F83D20002300E0022318469D
:103C24002037BD4680BD80B58AB002AFF860B96068
:103C34003B601346FB8000237B61FB6893F83E30B6
:103C4400DBB2202B40F08C80BB68002B02D0FB88B9
:103C5400002B01D1012384E0FB6893F83C30012B55
:103C640001D102237DE0FB68012283F83C20FB683C
:103C740000221A64FB68222283F83E20FB6800229B
:103C84001A63FDF7B5FC7861FB68FA889A85FB68CE
:103C9400FA88DA85FB689B68B3F5805F08D1FB6816
:103CA4001B69002B04D10023FB61BB68BB6103E0EB
:103CB400BB68FB610023BB61FB68002283F83C20E6
:103CC40043E03B6800937B6900222021F86800F000
:103CD400FBFA0346002B01D0032342E0FB69002BCF
:103CE4000CD1FB681B685B689BB2C3F308039AB2F0
:103CF400BB691A80BB690233BB611FE0FB689B6828
:103D0400B3F5805F07D0FB689B68002B0AD1FB6882
:103D14001B69002B06D1FB681B685B68DAB2FB6980
:103D24001A7008E0FB681B685B68DBB203F07F0372
:103D3400DAB2FB691A70FB690133FB61FB68DB8D46
:103D44009BB2013B9AB2FB68DA85FB68DB8D9BB2C0
:103D5400002BB6D1FB68202283F83E20002300E02C
:103D6400022318462037BD4680BD000080B5BAB096
:103D740000AF78607B681B681B68C7F8E4307B6819
:103D84001B68DB68C7F8E0307B681B685B69C7F8B1
:103D9400DC300023C7F8D8300023C7F8D430D7F874
:103DA400E43003F00F03C7F8D830D7F8D830002B2D
:103DB4000FD1D7F8E43003F02003002B09D0D7F853
:103DC400E03003F02003002B03D0786800F0C9FB37
:103DD40056E2D7F8D830002B00F0DE80D7F8DC307C
:103DE40003F00103002B06D1D7F8E03003F49073FD
:103DF400002B00F0D180D7F8E43003F00103002B4E
:103E04000BD0D7F8E03003F48073002B05D07B6827
:103E14001B6C43F001027B681A64D7F8E43003F0AA
:103E24000403002B0BD0D7F8DC3003F00103002B84
:103E340005D07B681B6C43F002027B681A64D7F8D8
:103E4400E43003F00203002B0BD0D7F8DC3003F08E
:103E54000103002B05D07B681B6C43F004027B68D4
:103E64001A64D7F8E43003F00803002B11D0D7F814
:103E7400E03003F02003002B05D1D7F8DC3003F049
:103E84000103002B05D07B681B6C43F008027B68A0
:103E94001A647B681B6C002B00F0ED81D7F8E430CA
:103EA40003F02003002B08D0D7F8E03003F0200300
:103EB400002B02D0786800F054FB7B681B685B69B8
:103EC40003F04003402B0CBF01230023DBB2C7F8EF
:103ED400D4307B681B6C03F00803002B03D1D7F8A4
:103EE400D430002B4FD0786800F05CFA7B681B68F4
:103EF4005B6903F04003402B41D17B681B6814339A
:103F0400C7F89C30D7F89C3053E8003FC7F8983086
:103F1400D7F8983023F04003C7F8D0307B681B688B
:103F24001433D7F8D020C7F8A820C7F8A430D7F89E
:103F3400A410D7F8A82041E80023C7F8A030D7F888
:103F4400A030002BD9D17B689B6B002B13D07B68EE
:103F54009B6B7D4A1A657B689B6B1846FEF70AF8D3
:103F64000346002B16D07B689B6B1B6D7A68926BA3
:103F7400104698470EE0786800F090F90AE07868F7
:103F840000F08CF906E0786800F088F97B6800227C
:103F94001A6470E100BF6EE17B681B6B012B40F07B
:103FA4004A81D7F8E43003F01003002B00F043817A
:103FB400D7F8E03003F01003002B00F03C8100231D
:103FC400BB607B681B681B68BB607B681B685B68A5
:103FD400BB60BB687B681B685B6903F04003402BD4
:103FE40040F0B4807B689B6B1B685B68A7F8BE30AD
:103FF400B7F8BE30002B00F040817B689B8DB7F88A
:10400400BE209A4280F039817B68B7F8BE20DA85F9
:104014007B689B6BDB69B3F5807F00F088807B68ED
:104024001B680C33C7F88830D7F8883053E8003F52
:10403400C7F88430D7F8843023F48073C7F8B830D5
:104044007B681B680C33D7F8B820C7F89420C7F8EE
:104054009030D7F89010D7F8942041E80023C7F89F
:104064008C30D7F88C30002BD9D17B681B68143383
:104074007B677B6F53E8003F3B673B6F23F0010393
:10408400C7F8B4307B681B681433D7F8B420C7F87A
:104094008020FB67F96FD7F8802041E80023BB67D5
:1040A400BB6F002BE1D17B681B6814333B663B6E0E
:1040B40053E8003FFB65FB6D23F04003C7F8B030C5
:1040C4007B681B681433D7F8B020FA66BB66B96EF8
:1040D400FA6E41E800237B667B6E002BE3D17B689C
:1040E400202283F83E207B6800221A637B681B68C9
:1040F4000C33FB64FB6C53E8003FBB64BB6C23F0E4
:104104001003C7F8AC307B681B680C33D7F8AC20BD
:10411400BA657B65796DBA6D41E800233B653B6DFB
:10412400002BE3D17B689B6B1846FDF7B3FE7B68DD
:104134009A8D7B68DB8D9BB2D31A9BB21946786843
:1041440000F0B6F899E000BF6F4400087B689A8DD0
:104154007B68DB8D9BB2D31AA7F8CE307B68DB8DEE
:104164009BB2002B00F08B80B7F8CE30002B00F010
:1041740086807B681B680C33BB63BB6B53E8003FD2
:104184007B637B6B23F49073C7F8C8307B681B6830
:104194000C33D7F8C8207A643B64396C7A6C41E8F4
:1041A4000023FB63FB6B002BE3D17B681B68143398
:1041B4007B627B6A53E8003F3B623B6A23F0010366
:1041C400C7F8C4307B681B681433D7F8C4203A633B
:1041D400FB62F96A3A6B41E80023BB62BB6A002BBD
:1041E400E3D17B68202283F83E207B6800221A6397
:1041F4007B681B680C333B613B6953E8003FFB6001
:10420400FB6823F01003C7F8C0307B681B680C33CD
:10421400D7F8C020FA61BB61B969FA6941E80023A3
:104224007B617B69002BE3D1B7F8CE3019467868FF
:1042340000F03EF823E0D7F8E43003F08003002BCD
:1042440009D0D7F8E03003F08003002B03D078685E
:1042540000F01FF914E0D7F8E43003F04003002B1A
:104264000ED0D7F8E03003F04003002B08D0786874
:1042740000F05FF904E000BF02E000BF00E000BF0F
:10428400E837BD4680BD00BF80B483B000AF78601E
:1042940000BF0C37BD465DF8047B704780B483B023
:1042A40000AF786000BF0C37BD465DF8047B7047F3
:1042B40080B483B000AF78600B467B8000BF0C37BE
:1042C400BD465DF8047B704780B590B000AFF860E0
:1042D400B9603B601346FB7150E0BB6CB3F1FF3F28
:1042E4004CD0BB6C002B07D0FDF782F902463B682B
:1042F400D31ABA6C9A4241D2FB681B680C33BB6276
:10430400BB6A53E8003F7B627B6A23F4D073FB6390
:10431400FB681B680C33FA6B7A633B63396B7A6B0B
:1043240041E80023FB62FB6A002BE5D1FB681B68B4
:1043340014337B617B6953E8003F3B613B6923F0A5
:104344000103BB63FB681B681433BA6B3A62FB61FD
:10435400F9693A6A41E80023BB61BB69002BE5D1E6
:10436400FB68202283F83D20FB68202283F83E204E
:10437400FB68002283F83C2003230FE0FB681B68E2
:104384001A68BB681340BA689A420CBF0123002321
:10439400DBB21A46FB799A429FD000231846403775
:1043A400BD4680BD80B495B000AF78607B681B6863
:1043B4000C337B637B6B53E8003F3B633B6B23F421
:1043C4009073FB647B681B680C33FA6C3A64FB6380
:1043D400F96B3A6C41E80023BB63BB6B002BE5D15E
:1043E4007B681B6814333B623B6A53E8003FFB6104
:1043F400FB6923F00103BB647B681B681433BA6C4C
:10440400FA62BB62B96AFA6A41E800237B627B6A9A
:10441400002BE5D17B681B6B012B19D17B681B68D2
:104424000C33FB60FB6853E8003FBB60BB6823F0C0
:1044340010037B647B681B680C337A6CBA617B6104
:104444007969BA6941E800233B613B69002BE5D1F6
:104454007B68202283F83E207B6800221A6300BF19
:104464005437BD465DF8047B704780B584B000AF17
:1044740078607B689B6BFB60FB680022DA85FB68D5
:104484000022DA84F868FFF709FF00BF1037BD4641
:1044940080BD80B485B000AF78607B6893F83D3010
:1044A400DBB2212B3ED17B689B68B3F5805F14D1CE
:1044B4007B681B69002B10D17B681B6AFB60FB685F
:1044C4001B881A467B681B68C2F308025A607B6823
:1044D4001B6A9A1C7B681A6208E07B681B6A591C79
:1044E4007A6811621A787B681B685A607B68DB8C77
:1044F4009BB2013B9BB27A681946D184002B0FD141
:104504007B681B68DA687B681B6822F08002DA60CB
:104514007B681B68DA687B681B6842F04002DA60DB
:10452400002300E0022318461437BD465DF8047BDF
:10453400704780B582B000AF78607B681B68DA682A
:104544007B681B6822F04002DA607B68202283F8D3
:104554003D207868FFF798FE002318460837BD46CB
:1045640080BD80B58CB000AF78607B6893F83E3036
:10457400DBB2222B40F0AB807B689B68B3F5805F95
:1045840017D17B681B69002B13D10023FB627B6866
:104594009B6ABB627B681B685B689BB2C3F30803BE
:1045A4009AB2BB6A1A807B689B6A9A1C7B689A627F
:1045B40026E07B689B6AFB620023BB627B689B6886
:1045C400B3F5805F07D07B689B68002B0AD17B68BA
:1045D4001B69002B06D17B681B685B68DAB2FB6A37
:1045E4001A7008E07B681B685B68DBB203F07F032A
:1045F400DAB2FB6A1A707B689B6A5A1C7B689A62FF
:104604007B68DB8D9BB2013B9BB27A681946D185EE
:10461400002B5AD17B681B68DA687B681B6822F020
:104624002002DA607B681B68DA687B681B6822F406
:104634008072DA607B681B685A697B681B6822F0A9
:1046440001025A617B68202283F83E207B681B6B41
:10465400012B35D17B6800221A637B681B680C33FD
:104664007B617B6953E8003F3B613B6923F01003A6
:104674007B627B681B680C337A6A3A62FB61F96976
:104684003A6A41E80023BB61BB69002BE5D17B6832
:104694001B681B6803F01003102B0AD10023FB6076
:1046A4007B681B681B68FB607B681B685B68FB603E
:1046B400FB687B689B8D19467868FFF7F9FD02E07B
:1046C4007868FCF7E7FB002302E0002300E0022304
:1046D40018463037BD4680BD2DE9B04FC0B000AF9D
:1046E400C7F8F400D7F8F4301B681B6923F4405072
:1046F400D7F8F430D968D7F8F4301A6840EA0103DF
:104704001361D7F8F4309A68D7F8F4301B691A4368
:10471400D7F8F4305B691A43D7F8F430DB691343F4
:10472400C7F8F830D7F8F4301B68DB6823F4164177
:1047340021F00C01D7F8F4301A68D7F8F8300B439D
:10474400D360D7F8F4301B685B6923F44070D7F862
:10475400F4309969D7F8F4301A6840EA01035361D8
:10476400D7F8F4301A688F4B9A4205D0D7F8F43052
:104774001A688D4B9A4204D1FEF7AEFCC7F8FC00D0
:1047840003E0FEF795FCC7F8FC00D7F8F430DB69CA
:10479400B3F5004F40F00C81D7F8FC300022C7F885
:1047A400E830C7F8EC20D7E93A4522462B46911861
:1047B400B9655B41FB65D7E91623214612EB010875
:1047C400294643EB01094FF000024FF000034FEA82
:1047D400C90343EA58734FEAC802904699462346F0
:1047E40018EB0303C7F8E0302B4649EB0303C7F883
:1047F400E430D7F8F4305B680022C7F8D830C7F843
:10480400DC20D7E936120B46DB183B65134642EB36
:1048140003037B65D7E91423D7E93801FBF7E0FCF0
:1048240002460B46614BA3FB02235B091C01D7F82C
:10483400FC300022C7F8D030C7F8D420D7E9348937
:1048440042464B469118B9645B41FB64D7E9122395
:10485400414612EB010A494643EB010B4FF00002BB
:104864004FF000034FEACB0343EA5A734FEACA02FC
:1048740092469B4643461AEB0303C7F8C8304B469F
:104884004BEB0303C7F8CC30D7F8F4305B68002255
:10489400C7F8C030C7F8C420D7E930120B46DB187C
:1048A4003B64134642EB03037B64D7E91023D7E947
:1048B4003201FBF795FC02460B4611463B4BA3FB2A
:1048C40001235B09642202FB03F3CB1ADB0003F12F
:1048D4003202364BA3FB02235B095B0003F4F8733B
:1048E4001C44D7F8FC300022C7F8B830C7F8BC2005
:1048F400D7E92E8942464B469118B9635B41FB6365
:10490400D7E90E2341465118396349464B417B632D
:104914004FF000024FF00003D7E90CAB5946CB002F
:10492400514643EA51735146CA001046194603469C
:1049340042469B18C7F8B0304B460A4642EB030385
:10494400C7F8B430D7F8F4305B680022C7F8A83051
:10495400C7F8AC20D7E92A120B46DB18BB62134612
:1049640042EB0303FB62D7E90A23D7E92C01FBF7E7
:1049740037FC02460B460D4BA3FB02135B09642173
:1049840001FB03F3D31ADB003233084AA2FB0323EF
:104994005B0903F00702D7F8F4301B6822449A60DD
:1049A40005E100BF00100140001401401F85EB51D8
:1049B400D7F8FC300022C7F8A030C7F8A420D7E904
:1049C400288942464B46911839625B417B62D7E99C
:1049D400082341465418494643EB01054FF00002B1
:1049E4004FF00003EB0043EA5473E20014461D4603
:1049F4004346E318C7F898304B4645EB0303C7F822
:104A04009C30D7F8F4305B680022C7F89030C7F8C0
:104A140094204FF000024FF00003D7E924452946C3
:104A24008B00214643EA917321468A00D7E9260187
:104A3400FBF7D6FB02460B46604BA3FB02235B0944
:104A44001C01D7F8FC300022C7F88830C7F88C2046
:104A5400D7E9228942464B469118B9615B41FB6113
:104A6400D7E9062341465118396149464B417B61D8
:104A74004FF000024FF00003D7E904AB5946CB00D6
:104A8400514643EA51735146CA001046194603463B
:104A940042469B18C7F880304B460A4642EB030354
:104AA400C7F88430D7F8F4305B680022BB67FA6734
:104AB4004FF000024FF00003D7E91E8949468B00EE
:104AC400414643EA917341468A00D7E92001FBF746
:104AD40087FB02460B46394BA3FB02135B09642197
:104AE40001FB03F3D31A1B013233344AA2FB032321
:104AF4005B0903F0F0031C44D7F8FC3000223B6749
:104B04007A67D7E91C8942464B469118B9605B41E4
:104B1400FB60D7E9022341465118396049464B41AD
:104B24007B604FF000024FF00003D7E900AB594619
:104B3400CB00514643EA51735146CA001046194608
:104B4400034642469B18BB664B460A4642EB0303A8
:104B5400FB66D7F8F4305B6800223B667A664FF058
:104B640000024FF00003D7E9188949468B004146FB
:104B740043EA917341468A00D7E91A01FBF730FBF7
:104B840002460B460D4BA3FB02135B09642101FB98
:104B940003F3D31A1B013233084AA2FB03235B0934
:104BA40003F00F02D7F8F4301B6822449A6000BF68
:104BB40007F58077BD46BDE8B08F00BF1F85EB5178
:104BC4000A22002100F0B4B8014B1868704700BFF6
:104BD4001000002070B50D4D0D4C641BA410002670
:104BE400A64209D10B4D0C4C00F0ACF8641BA41088
:104BF4000026A64205D170BD55F8043B98470136FE
:104C0400EEE755F8043B98470136F2E7F84E000802
:104C1400F84E0008F84E0008FC4E00080244034613
:104C2400934200D1704703F8011BF9E7012B2DE9EA
:104C3400F04701D0242B06D9FFF7C6FF16230360E3
:104C44000020BDE8F087DFF8E4C00D462E4615F8D5
:104C5400014B14F80C7017F00807F7D12D2C32D142
:104C64002C780127B51C002B5BD0102B09D1302CDC
:104C740007D12C7804F0DF04582C4DD16C78102324
:104C8400023507F1004808F1FF384FF0000CB8FB7B
:104C9400F3F9664603FB198AA4F1300EBEF1090F3D
:104CA40016D87446A34224DDBCF1000F1EDBB145C7
:104CB4001CD301D1A24519DB06FB03464FF0010CBE
:104CC40015F8014BE8E72B2C04BF2C78B51CCAE778
:104CD400A4F1410EBEF1190F01D8373CE2E7A4F16B
:104CE400610EBEF1190F04D8573CDBE74FF0FF3CCF
:104CF400E6E7BCF1000F05DA22230360464642B919
:104D040030469EE707B17642002AF9D0BCF1000F85
:104D140000D0691E1160F3E73024002BB1D10823C1
:104D2400AFE7302CA5D00A23ABE700BFED4D000858
:104D340013460A46014602480068FFF777BF00BFE2
:104D440010000020F8B500BFF8BC08BC9E467047B0
:0C4D5400F8B500BFF8BC08BC9E467047D4
:104D60004D4F4445300000004D4F44453100000098
:104D70004D4F4445320000004D4F44453300000084
:104D800072783A000D0A00002068656C6C6F20662E
:104D9000726F6D2073746D3332200D0A00000000B5
:104DA00020686579206A796F7468750D0A000000C3
:104DB0004E554C4C000000005265636569766520D5
:104DC0006D6F6465206F6B200D0A0000000000000D
:104DD00000000000010203040607080900000000AB
:104DE0000102030400061016000610160020202001
:104DF000202020202020282828282820202020208B
:104E0000202020202020202020202020208810105A
:104E100010101010101010101010101010040404B6
:104E20000404040404040410101010101010414174
:104E30004141414101010101010101010101010162
:104E40000101010101010101101010101010424276
:104E50004242424202020202020202020202020232
:104E600002020202020202021010101020000000D2
:104E70000000000000000000000000000000000032
:104E80000000000000000000000000000000000022
:104E90000000000000000000000000000000000012
:104EA0000000000000000000000000000000000002
:104EB00000000000000000000000000000000000F2
:104EC00000000000000000000000000000000000E2
:104ED00000000000000000000000000000000000D2
:104EE00000000000000000000000000000000000C2
:084EF00024B3FF7F0100000064
:044EF800B9010008F4
:044EFC009501000814
:104F00000D0A00000024F400100000000100000061
:104F1000140000200000000000000000000000005D
:104F20000000000000000000000000000000000081
:104F30000000000000000000000000000000000071
:104F40000000000000000000000000000000000061
:104F50000000000000000000000000000000000051
:104F60000000000000000000000000000000000041
:044F7000000000003D
:04000005080014D506
:00000001FF
