:020000040800F2
:1000000000800120F9140008B5130008BB13000894
:10001000C1130008C7130008CD130008000000003A
:10002000000000000000000000000000D3130008E2
:10003000E113000800000000EF130008FD130008A2
:100040004915000849150008491500084915000818
:100050004915000849150008491500084915000808
:1000600049150008491500084915000849150008F8
:1000700049150008491500084915000849150008E8
:10008000091400084915000849150008000000007F
:1000900000000000000000000000000049150008FA
:1000A00049150008491500084915000849150008B8
:1000B00049150008491500084915000849150008A8
:1000C0004915000849150008491500084915000898
:1000D000491500081D140008311400080000000034
:1000E00045140008491500084915000800000000E3
:1000F000000000000000000000000000491500089A
:1001000000000000491500084915000849150008BD
:1001100000000000000000000000000000000000DF
:10012000491500084915000855140008491500082C
:100130004915000800000000000000000000000059
:100140000000000000000000000000004915000849
:100150004915000849150008491500084915000807
:1001600049150008491500080000000000000000C3
:10017000000000000000000000000000000000007F
:100180000000000049150008000000000000000009
:040190004915000805
:1001A00010B5054C237833B9044B13B10448AFF3B1
:1001B00000800123237010BD7000002000000000AB
:1001C000F853000808B5034B1BB103490348AFF3CC
:1001D000008008BD0000000074000020F8530008F3
:1001E00001F0FF01102A2BDB10F0070F08D010F8E8
:1001F000013B013A8B422DD010F0070F42B3F6D1EC
:10020000F0B441EA012141EA014122F007047FF004
:1002100000070023F0E80256083C85EA010586EA5B
:10022000010685FA47F5A3FA87F586FA47F6A5FA97
:1002300087F68EB9EED1F0BC01F0FF0102F00702A3
:1002400032B110F8013B013A83EA010313B1F8D14E
:100250000020704701387047002D06BF354603382F
:10026000073815F0010F07D1013015F4807F02BF68
:10027000013015F4C03F0130F0BC0138704700BFB9
:1002800053B94AB9002908BF00281CBF4FF0FF31FD
:100290004FF0FF3000F074B9ADF1080C6DE904CEF9
:1002A00000F006F8DDF804E0DDE9022304B0704751
:1002B0002DE9F047089D04468E46002B4DD18A4219
:1002C000944669D9B2FA82F252B101FA02F3C2F14C
:1002D000200120FA01F10CFA02FC41EA030E9440DD
:1002E0004FEA1C48210CBEFBF8F61FFA8CF708FBFE
:1002F00016E341EA034306FB07F199420AD91CEBD6
:10030000030306F1FF3080F01F81994240F21C8107
:10031000023E63445B1AA4B2B3FBF8F008FB10334F
:1003200044EA034400FB07F7A7420AD91CEB040484
:1003300000F1FF3380F00A81A74240F20781644454
:10034000023840EA0640E41B00261DB1D4400023D9
:10035000C5E900433146BDE8F0878B4209D9002D3D
:1003600000F0EF800026C5E9000130463146BDE8C7
:10037000F087B3FA83F6002E4AD18B4202D3824231
:1003800000F2F980841A61EB030301209E46002DE0
:10039000E0D0C5E9004EDDE702B9FFDEB2FA82F235
:1003A000002A40F09280A1EB0C014FEA1C471FFA93
:1003B0008CFE0126200CB1FBF7F307FB131140EA7A
:1003C00001410EFB03F0884208D91CEB010103F147
:1003D000FF3802D2884200F2CB804346091AA4B209
:1003E000B1FBF7F007FB101144EA01440EFB00FEDD
:1003F000A64508D91CEB040400F1FF3102D2A64542
:1004000000F2BB800846A4EB0E0440EA03409CE7E0
:10041000C6F12007B34022FA07FC4CEA030C20FA8D
:1004200007F401FA06F31C43F9404FEA1C4900FAAD
:1004300006F3B1FBF9F8200C1FFA8CFE09FB18112A
:1004400040EA014108FB0EF0884202FA06F20BD99D
:100450001CEB010108F1FF3A80F08880884240F2ED
:100460008580A8F102086144091AA4B2B1FBF9F031
:1004700009FB101144EA014100FB0EFE8E4508D92C
:100480001CEB010100F1FF346CD28E456AD90238B1
:10049000614440EA0840A0FB0294A1EB0E01A14296
:1004A000C846A64656D353D05DB1B3EB080261EB04
:1004B0000E0101FA07F722FA06F3F1401F43C5E9DE
:1004C000007100263146BDE8F087C2F12003D84014
:1004D0000CFA02FC21FA03F3914001434FEA1C4756
:1004E0001FFA8CFEB3FBF7F007FB10360B0C43EA48
:1004F000064300FB0EF69E4204FA02F408D91CEBF8
:10050000030300F1FF382FD29E422DD902386344F5
:100510009B1B89B2B3FBF7F607FB163341EA034195
:1005200006FB0EF38B4208D91CEB010106F1FF38E4
:1005300016D28B4214D9023E6144C91A46EA0046DB
:1005400038E72E46284605E70646E3E61846F8E66D
:100550004B45A9D2B9EB020864EB0C0E0138A3E7B6
:100560004646EAE7204694E74046D1E7D0467BE797
:10057000023B614432E7304609E76444023842E70F
:10058000704700BF80B584B000AF0346FB800F4BBF
:10059000FB6007F10C010A2304220D4803F0C5FAA1
:1005A000FB88B3F5005F0CD10A4B1B68022B05DCFE
:1005B000084B1B680133074A136002E0054B002219
:1005C0001A6000BF1037BD4680BD00BF2A0D0A006B
:1005D000F40100203C030020B0B5BEB000AF00F035
:1005E000B5FF00F0C3F800F0C7FB00F08FFB00F090
:1005F00063FB00F0D1FA00F077F900F051FA00F057
:1006000031FB00F01FF900F0F1F90C214C4802F029
:10061000DBFD00214B4802F0D7FD0C214A4802F0D7
:10062000D3FD0C21494802F0CFFD494B07F1E0040E
:100630001D460FCD0FC495E80300206004342170DF
:10064000444B07F1D0040FCB07C42380424B1B68F7
:10065000032B59D801A252F823F000BF6D06000801
:1006600089060008A5060008D50600080122012118
:100670003A4802F075F8334B1B6832225A63324B0A
:100680001B6832221A643FE000220121334802F045
:1006900067F82C4B1B6864225A632B4B1B6864223F
:1006A0001A6431E0274B1B68C8225A63264B1B682B
:1006B000C8221A640121294802F06BF807F1E00111
:1006C0000A231522264803F030FA4FF4C87000F0D0
:1006D000AFFF19E01B4B1B684FF42F725A631A4B84
:1006E0001B684FF42F721A6401211C4802F051F864
:1006F00007F1D0010A230E22194803F016FA4FF42D
:100700007A7000F095FF00BF164BC7F8CC30124B43
:100710001A683B1D1449184604F000FA391D0A23D3
:10072000C8220F4803F001FA07F1CC010A23042282
:100730000B4803F0FAF94FF47A7000F079FF85E77F
:10074000D40000201C01002064010020AC01002026
:10075000145400082C5400083C0300200000024000
:10076000F40100202E0D0A001054000880B594B04A
:1007700000AF07F1200330220021184604F0C6F92B
:1007800007F10C0300221A605A609A60DA601A615D
:100790000023BB60294B1B6C284A43F08053136431
:1007A000264B1B6C03F08053BB60BB6800237B604F
:1007B000234B1B6823F44043214A43F40043136056
:1007C0001F4B1B6803F440437B607B6802233B6242
:1007D0000123FB6210233B630223BB630023FB6303
:1007E00010233B644FF4A8737B640423BB6407238A
:1007F000FB6407F12003184601F0FEFF0346002BBF
:1008000001D000F043FB0F23FB6002233B61002378
:100810007B614FF48053BB610023FB6107F10C0344
:100820000221184602F060FA0346002B01D000F0C6
:100830002DFB00BF5037BD4680BD00BF00380240D1
:100840000070004080B584B000AF3B4600221A60C3
:100850005A609A60DA60214B214A1A601F4B4FF4AC
:1008600080325A601D4B00229A601C4B00221A6194
:100870001A4B00221A76194B002283F82020174BBE
:100880000022DA62154B174A9A62144B0022DA6092
:10089000124B0122DA61114B002283F830200F4BFA
:1008A00001225A610D4800F0E7FE0346002B01D0FB
:1008B00000F0ECFA01233B6001237B600023BB6066
:1008C0003B461946054800F01BFF0346002B01D0AC
:1008D00000F0DCFA00BF1037BD4680BD8C00002060
:1008E000002001400100000F80B592B000AF07F179
:1008F000400300221A605A6007F1240300221A60A4
:100900005A609A60DA601A615A619A613B1D20222E
:100910000021184604F0FAF8324B334A1A60314B82
:100920004FF452725A602F4B00229A602D4B4FF4B5
:100930007A72DA602B4B00221A612A4B00225A612C
:10094000284B80229A61274802F0EEFB0346002BD9
:1009500001D000F09BFA00233B6400237B6407F185
:10096000400319461F4802F0D3FF0346002B01D075
:1009700000F08CFA60237B620023BB620023FB62E1
:1009800000237B630023BB630023FB6307F1240385
:100990000C221946134802F0C7FC0346002B01D075
:1009A00000F074FA00237B600023BB600023FB602F
:1009B00000233B6100237B614FF40053BB610023A4
:1009C0003B623B1D1946074803F010F80346002B15
:1009D00001D000F05BFA034800F02CFB00BF483761
:1009E000BD4680BDD40000200000014080B58AB023
:1009F00000AF07F1200300221A605A603B1D00225D
:100A00001A605A609A60DA601A615A619A61234BDF
:100A10004FF080421A60214B4FF452725A601F4BC4
:100A200000229A601D4B42F21072DA601B4B0022CA
:100A30001A611A4B80229A61184802F075FB03462E
:100A4000002B01D000F022FA00233B6200237B62DE
:100A500007F120031946114802F05AFF0346002B04
:100A600001D000F013FA60237B600023BB600023F9
:100A7000FB6000237B613B1D00221946074802F002
:100A800053FC0346002B01D000F000FA034800F0AD
:100A9000D1FA00BF2837BD4680BD00BF1C01002031
:100AA00080B58AB000AF07F1200300221A605A60B7
:100AB0003B1D00221A605A609A60DA601A615A611E
:100AC0009A61334B334A1A60314B4FF452725A6079
:100AD0002F4B00229A602E4B4FF47A72DA602C4B27
:100AE00000221A612A4B80229A61294802F01CFBDD
:100AF0000346002B01D000F0C9F900233B6200231C
:100B00007B6207F120031946214802F001FF0346EA
:100B1000002B01D000F0BAF960237B600023BB609A
:100B20000023FB6000237B613B1D0022194618480F
:100B300002F0FAFB0346002B01D000F0A7F93B1DA1
:100B400004221946124802F0EFFB0346002B01D0A5
:100B500000F09CF93B1D082219460D4802F0E4FB09
:100B60000346002B01D000F091F93B1D0C221946E1
:100B7000074802F0D9FB0346002B01D000F086F9AC
:100B8000034800F057FA00BF2837BD4680BD00BFBC
:100B9000640100200004004080B58AB000AF07F176
:100BA000200300221A605A603B1D00221A605A601E
:100BB0009A60DA601A615A619A61284B284A1A6071
:100BC000264B4FF452725A60244B00229A60234BFA
:100BD0004FF47A72DA60214B00221A611F4B802297
:100BE0009A611E4802F0A0FA0346002B01D000F0E3
:100BF0004DF900233B6200237B6207F12003194675
:100C0000164802F085FE0346002B01D000F03EF9A5
:100C100060237B600023BB600023FB6000237B61BB
:100C20003B1D002219460D4802F07EFB0346002BB7
:100C300001D000F02BF93B1D08221946074802F0AD
:100C400073FB0346002B01D000F020F9034800F0AD
:100C5000F1F900BF2837BD4680BD00BFAC010020C0
:100C60000008004080B500AF114B124A1A60104BCB
:100C70004FF4E1325A600E4B00229A600C4B002276
:100C8000DA600B4B00221A61094B0C225A61084BA7
:100C900000229A61064B0022DA61054802F0F8FE54
:100CA0000346002B01D000F0F1F800BF80BD00BF6B
:100CB000F40100200010014080B500AF114B124A32
:100CC0001A60104B4FF416525A600E4B00229A6075
:100CD0000C4B0022DA600B4B00221A61094B0C22EC
:100CE0005A61084B00229A61064B0022DA610548DE
:100CF00002F0CEFE0346002B01D000F0C7F800BF83
:100D000080BD00BF380200200044004080B582B0A2
:100D100000AF00237B60174B1B6B164A43F4800324
:100D20001363144B1B6B03F480037B607B6800230D
:100D30003B60104B1B6B0F4A43F4001313630D4BC6
:100D40001B6B03F400133B603B6800220021102062
:100D500000F0CFFF102000F0E8FF002200213A2031
:100D600000F0C7FF3A2000F0E0FF00BF0837BD46A3
:100D700080BD00BF0038024080B58AB000AF07F1E7
:100D8000140300221A605A609A60DA601A61002324
:100D90003B613B4B1B6B3A4A43F004031363384BF4
:100DA0001B6B03F004033B613B690023FB60344B86
:100DB0001B6B334A43F080031363314B1B6B03F00F
:100DC0008003FB60FB680023BB602D4B1B6B2C4A30
:100DD00043F0010313632A4B1B6B03F00103BB6059
:100DE000BB6800237B60264B1B6B254A43F0020344
:100DF0001363234B1B6B03F002037B607B680022B1
:100E00000221204801F0ACFC002201211E4801F023
:100E1000A7FC4FF400537B614FF40413BB61002324
:100E2000FB6107F114031946164801F015FB022374
:100E30007B610123BB610023FB6100233B6207F15F
:100E4000140319460F4801F007FB01237B610123BE
:100E5000BB610023FB6100233B6207F114031946C9
:100E6000094801F0F9FA00220021282000F041FF92
:100E7000282000F05AFF00BF2837BD4680BD00BFC4
:100E800000380240000802400000024080B400AF79
:100E900072B600BFFEE7000080B582B000AF00234D
:100EA0007B60104B5B6C0F4A43F4804353640D4BE3
:100EB0005B6C03F480437B607B6800233B60094BE1
:100EC0001B6C084A43F080531364064B1B6C03F001
:100ED00080533B603B68072000F000FF00BF0837ED
:100EE000BD4680BD0038024080B58AB000AF786052
:100EF00007F1140300221A605A609A60DA601A61DE
:100F00007B681B68174A934227D100233B61164B2D
:100F10005B6C154A43F480735364134B5B6C03F4AE
:100F200080733B613B690023FB600F4B1B6B0E4AD8
:100F300043F0010313630C4B1B6B03F00103FB60D5
:100F4000FB6802237B610323BB610023FB6107F184
:100F500014031946054801F07FFA00BF2837BD4643
:100F600080BD00BF00200140003802400000024068
:100F700080B487B000AF78607B681B68294A9342D1
:100F80000ED100237B61284B5B6C274A43F00103A1
:100F90005364254B5B6C03F001037B617B693AE092
:100FA0007B681B68B3F1804F0ED100233B611E4B61
:100FB0001B6C1D4A43F0010313641B4B1B6C03F0B5
:100FC00001033B613B6926E07B681B68174A93423B
:100FD0000ED10023FB60144B1B6C134A43F0020339
:100FE0001364114B1B6C03F00203FB60FB6812E0FF
:100FF0007B681B680E4A93420DD10023BB600A4BED
:101000001B6C094A43F004031364074B1B6C03F089
:101010000403BB60BB6800BF1C37BD465DF8047BA2
:10102000704700BF0000014000380240000400404B
:101030000008004080B58CB000AF786007F11C0359
:1010400000221A605A609A60DA601A617B681B6835
:10105000584A93421FD10023BB61574B1B6B564A22
:1010600043F001031363544B1B6B03F00103BB619B
:10107000BB694FF40063FB6102233B6200237B6288
:101080000023BB620123FB6207F11C0319464B4896
:1010900001F0E2F98AE07B681B68B3F1804F1ED152
:1010A00000237B61444B1B6B434A43F001031363F2
:1010B000414B1B6B03F001037B617B692023FB61C8
:1010C00002233B6200237B620023BB620123FB629D
:1010D00007F11C031946394801F0BEF966E07B6848
:1010E0001B68374A93423DD100233B61324B1B6B57
:1010F000314A43F0010313632F4B1B6B03F00103D1
:101100003B613B690023FB602B4B1B6B2A4A43F07E
:1011100004031363284B1B6B03F00403FB60FB68A1
:101120008023FB6102233B6200237B620023BB62BE
:101130000223FB6207F11C031946204801F08CF9D9
:101140004FF45073FB6102233B6200237B62002358
:10115000BB620223FB6207F11C031946194801F028
:101160007BF923E07B681B68174A93421ED100235A
:10117000BB60114B1B6B104A43F0020313630E4B11
:101180001B6B03F00203BB60BB684FF4A073FB61F1
:1011900002233B6200237B620023BB620223FB62CB
:1011A00007F11C031946094801F056F900BF303712
:1011B000BD4680BD000001400038024000000240F2
:1011C0000004004000080240000800400004024003
:1011D00080B58CB000AF786007F11C0300221A6064
:1011E0005A609A60DA601A617B681B68694A9342A8
:1011F00064D10023BB61684B5B6C674A43F010030A
:101200005364654B5B6C03F01003BB61BB69002347
:101210007B61614B1B6B604A43F0010313635E4BC0
:101220001B6B03F001037B617B694FF4C063FB61BF
:1012300002233B6200237B620323BB620723FB6222
:1012400007F11C031946554801F006F9544B554A5D
:101250001A60534B4FF000625A60514B00229A6063
:101260004F4B0022DA604E4B4FF480621A614C4BB8
:1012700000225A614A4B00229A61494B4FF4807216
:10128000DA61474B00221A62454B00225A624448F9
:1012900000F066FD0346002B01D0FFF7F7FD7B68E9
:1012A0003F4A9A633E4A7B689363002200212520CF
:1012B00000F01FFD252000F038FD66E07B681B680C
:1012C000394A934261D100233B61334B1B6C324A54
:1012D00043F400331364304B1B6C03F400333B6165
:1012E0003B690023FB602C4B1B6B2B4A43F0010333
:1012F0001363294B1B6B03F00103FB60FB680C239A
:10130000FB6102233B6200237B620023BB62072355
:10131000FB6207F11C031946204801F09DF8234B9E
:10132000234A1A60214B4FF000625A601F4B002283
:101330009A601E4B0022DA601C4B4FF480621A61E7
:101340001A4B00225A61194B00229A61174B002256
:10135000DA61164B00221A62144B00225A621348BB
:1013600000F0FEFC0346002B01D0FFF78FFD7B68E9
:101370000E4A9A630D4A7B6893630022002126205F
:1013800000F0B7FC262000F0D0FC00BF3037BD468F
:1013900080BD00BF00100140003802400000024044
:1013A0007C0200204064024000440040DC02002037
:1013B0008860024080B400AFFEE780B400AFFEE773
:1013C00080B400AFFEE780B400AFFEE780B400AFAA
:1013D000FEE780B400AF00BFBD465DF8047B7047F8
:1013E00080B400AF00BFBD465DF8047B704780B499
:1013F00000AF00BFBD465DF8047B704780B500AF0D
:1014000000F0F6F800BF80BD80B500AF024800F0E4
:10141000E7FD00BF80BD00BFDC02002080B500AF4B
:10142000024802F015FC00BF80BD00BFF40100209F
:1014300080B500AF024802F00BFC00BF80BD00BFCA
:101440003802002080B500AF4FF4005001F0BCF925
:1014500000BF80BD80B500AF024800F0C1FD00BFF5
:1014600080BD00BF7C02002080B586B000AF7860F0
:10147000144A154BD31A7B617B693B61134B1B6884
:10148000002B02D1114B124A1A60104B1A687B686C
:1014900013443A699A4207D203F00EFB03460C222A
:1014A0001A604FF0FF3309E0084B1B68FB60074BE5
:1014B0001A687B681344054A1360FB68184618379E
:1014C000BD4680BD008001200004000040030020D4
:1014D0005803002080B400AF064BD3F88830054A8B
:1014E00043F47003C2F8883000BFBD465DF8047B4A
:1014F000704700BF00ED00E0DFF834D00D480E4922
:101500000E4A002302E0D458C4500433C4188C425D
:10151000F9D30B4A0B4C002301E013600432A242C2
:10152000FBD3FFF7D7FF03F0CDFAFFF755F870476D
:10153000008001200000002070000020A05400085E
:101540007000002058030020FEE7000080B500AFC7
:101550000E4B1B680D4A43F4007313600B4B1B6862
:101560000A4A43F480631360084B1B68074A43F43C
:1015700080731360032000F0B1FB002000F008F836
:10158000FFF78AFC0023184680BD00BF003C0240E4
:1015900080B582B000AF7860124B1A68124B1B788E
:1015A00019464FF47A73B3FBF1F3B2FBF3F3184629
:1015B00000F0C9FB0346002B01D001230EE07B683D
:1015C0000F2B0AD8002279684FF0FF3000F091FB12
:1015D000064A7B681360002300E0012318460837A1
:1015E000BD4680BD0000002008000020040000204F
:1015F00080B400AF064B1B781A46064B1B68134499
:10160000044A136000BFBD465DF8047B704700BF0D
:10161000080000204403002080B400AF034B1B6887
:101620001846BD465DF8047B704700BF44030020A8
:1016300080B584B000AF7860FFF7EEFFB8607B68DC
:10164000FB60FB68B3F1FF3F05D00A4B1B781A46DD
:10165000FB681344FB6000BFFFF7DEFF0246BB6878
:10166000D31AFA689A42F7D800BF00BF1037BD46B8
:1016700080BD00BF0800002080B584B000AF786056
:101680000023FB737B68002B01D1012333E07B68CF
:101690001B6C002B09D17868FFF726FC7B680022C1
:1016A0005A647B68002283F83C207B681B6C03F043
:1016B0001003002B18D17B681B6C23F4885323F094
:1016C000020343F002027B681A64786800F03AF97A
:1016D0007B6800225A647B681B6C23F0030343F091
:1016E00001027B681A6401E00123FB737B6800221E
:1016F00083F83C20FB7B18461037BD4680BD0000B8
:1017000080B485B000AF786039600023BB607B682F
:1017100093F83C30012B01D1022305E17B680122C3
:1017200083F83C203B681B68092B25D97B681B6824
:10173000D9683B681B689BB21A4613465B0013448A
:101740001E3B072202FA03F3DA437B681B680A4058
:10175000DA607B681B68D9683B689A683B681B68DD
:101760009BB2184603465B0003441E3B9A407B68CD
:101770001B680A43DA6022E07B681B6819693B68D2
:101780001B689BB21A4613465B001344072202FAF9
:1017900003F3DA437B681B680A401A617B681B68A5
:1017A00019693B689A683B681B689BB218460346F8
:1017B0005B0003449A407B681B680A431A613B68DC
:1017C0005B68062B24D87B681B68596B3B685A689A
:1017D00013469B001344053B1F2202FA03F3DA432E
:1017E0007B681B680A405A637B681B68596B3B68BF
:1017F0001B689BB218463B685A6813469B0013440B
:10180000053B00FA03F27B681B680A435A634CE00D
:101810003B685B680C2B24D87B681B68196B3B68A2
:101820005A6813469B001344233B1F2202FA03F31A
:10183000DA437B681B680A401A637B681B68196B74
:101840003B681B689BB218463B685A6813469B006E
:101850001344233B00FA03F27B681B680A431A63B4
:1018600023E07B681B68D96A3B685A6813469B0073
:101870001344413B1F2202FA03F3DA437B681B68DF
:101880000A40DA627B681B68D96A3B681B689BB2B6
:1018900018463B685A6813469B001344413B00FAC4
:1018A00003F27B681B680A43DA62224BFB607B68A9
:1018B0001B68214A934209D13B681B68122B05D152
:1018C000FB685B6843F48002FB685A607B681B68B6
:1018D000194A934223D13B681B68102B03D03B6805
:1018E0001B68112B1BD1FB685B6843F40002FB688B
:1018F0005A603B681B68102B11D1104B1B68104AB3
:10190000A2FB03239A0C13469B0013445B00BB60AD
:1019100002E0BB68013BBB60BB68002BF9D17B6870
:10192000002283F83C20002318461437BD465DF89A
:10193000047B70470023014000200140000000208C
:1019400083DE1B4380B485B000AF7860794BFB60C9
:10195000FB685B6823F44032FB685A60FB685A6896
:101960007B685B681A43FB685A607B681B685A682F
:101970007B681B6822F480725A607B681B68596818
:101980007B681B691A027B681B680A435A607B6884
:101990001B685A687B681B6822F040725A607B683B
:1019A0001B6859687B689A687B681B680A435A60A1
:1019B0007B681B689A687B681B6822F400629A60E7
:1019C0007B681B6899687B68DA687B681B680A43D8
:1019D0009A607B689B6A584A934222D07B681B6856
:1019E0009A687B681B6822F070629A607B681B684B
:1019F00099687B689A6A7B681B680A439A607B686F
:101A00001B689A687B681B6822F040529A607B686A
:101A10001B6899687B68DA6A7B681B680A439A606E
:101A20000FE07B681B689A687B681B6822F0706215
:101A30009A607B681B689A687B681B6822F040523A
:101A40009A607B681B689A687B681B6822F00202B8
:101A50009A607B681B6899687B681B7E5A007B686C
:101A60001B680A439A607B6893F82030002B1BD0D8
:101A70007B681B685A687B681B6842F400625A6086
:101A80007B681B685A687B681B6822F460425A6056
:101A90007B681B6859687B685B6A013B5A037B68FB
:101AA0001B680A435A6007E07B681B685A687B68BA
:101AB0001B6822F400625A607B681B68DA6A7B68E4
:101AC0001B6822F47002DA627B681B68D96A7B6843
:101AD000DB69013B1A057B681B680A43DA627B6895
:101AE0001B689A687B681B6822F400729A607B68A6
:101AF0001B6899687B6893F830305A027B681B68D2
:101B00000A439A607B681B689A687B681B6822F4AA
:101B100080629A607B681B6899687B685B699A023F
:101B20007B681B680A439A6000BF1437BD465DF8A6
:101B3000047B7047002301400100000F80B485B092
:101B400000AF78607B6803F00703FB600C4BDB6839
:101B5000BB60BA684FF6FF031340BB60FB681A0214
:101B6000BB68134343F0BF6343F40033BB60044AD4
:101B7000BB68D36000BF1437BD465DF8047B704777
:101B800000ED00E080B400AF044BDB681B0A03F0FB
:101B900007031846BD465DF8047B704700ED00E082
:101BA00080B483B000AF0346FB7197F90730002B78
:101BB0000BDBFB7903F01F02074997F907305B093C
:101BC000012000FA02F241F8232000BF0C37BD4685
:101BD0005DF8047B704700BF00E100E080B483B093
:101BE00000AF03463960FB7197F90730002B0ADB21
:101BF0003B68DAB20C4997F907301201D2B20B44B4
:101C000083F800230AE03B68DAB20849FB7903F065
:101C10000F03043B1201D2B20B441A7600BF0C37FB
:101C2000BD465DF8047B704700E100E000ED00E098
:101C300080B489B000AFF860B9607A60FB6803F0E7
:101C40000703FB61FB69C3F10703042B28BF0423CF
:101C5000BB61FB690433062B02D9FB69033B00E03F
:101C600000237B614FF0FF32BB6902FA03F3DA43D2
:101C7000BB681A407B699A404FF0FF317B6901FADB
:101C800003F3D9437B680B40134318462437BD4602
:101C90005DF8047B7047000080B582B000AF7860CB
:101CA0007B68013BB3F1807F01D301230FE00A4A37
:101CB0007B68013B53600F214FF0FF30FFF78EFF31
:101CC000054B00229A60044B07221A600023184635
:101CD0000837BD4680BD00BF10E000E080B582B08F
:101CE00000AF78607868FFF729FF00BF0837BD466E
:101CF00080BD80B586B000AF0346B9607A60FB73E3
:101D000000237B61FFF73EFF78617A68B9687869E4
:101D1000FFF78EFF024697F90F3011461846FFF77E
:101D20005DFF00BF1837BD4680BD80B582B000AFF3
:101D30000346FB7197F907301846FFF731FF00BFE4
:101D40000837BD4680BD80B582B000AF7860786846
:101D5000FFF7A2FF034618460837BD4680BD0000C6
:101D600080B586B000AF786000237B61FFF754FC3C
:101D700038617B68002B01D1012399E07B68022246
:101D800083F835207B68002283F834207B681B6849
:101D90001A687B681B6822F001021A600FE0FFF7E7
:101DA0003BFC02463B69D31A052B08D97B682022ED
:101DB0005A657B68032283F83520032378E07B682B
:101DC0001B681B6803F00103002BE8D17B681B68CC
:101DD0001B687B617A69384B13407B617B685A686A
:101DE0007B689B681A437B68DB681A437B681B69C6
:101DF0001A437B685B691A437B689B691A437B685B
:101E0000DB691A437B681B6A13437A6913437B615E
:101E10007B685B6A042B07D17B68DA6A7B681B6B83
:101E200013437A6913437B617B681B687A691A6084
:101E30007B681B685B697B617B6923F007037B61BF
:101E40007B685B6A7A6913437B617B685B6A042BFE
:101E500017D17B689B6A7A6913437B617B68DB6A75
:101E6000002B0ED0786800F07BFA0346002B08D0D8
:101E70007B6840225A657B68012283F83520012364
:101E800016E07B681B687A695A61786800F032FA5C
:101E90000346FB607B68DB6D3F229A40FB689A60DB
:101EA0007B6800225A657B68012283F83520002375
:101EB00018461837BD4680BD3F8010F080B584B00D
:101EC00000AF78607B689B6DFB60FFF7A5FBB86097
:101ED0007B6893F83530DBB2022B08D07B68802218
:101EE0005A657B68002283F83420012352E07B6826
:101EF0001B681A687B681B6822F016021A607B68F0
:101F00001B685A697B681B6822F080025A617B68F3
:101F10001B6C002B03D17B689B6C002B07D07B686C
:101F20001B681A687B681B6822F008021A607B68CD
:101F30001B681A687B681B6822F001021A6013E0B4
:101F4000FFF76AFB0246BB68D31A052B0CD97B68E6
:101F500020225A657B68032283F835207B680022A3
:101F600083F83420032315E07B681B681B6803F0AB
:101F70000103002BE4D17B68DB6D3F229A40FB68B4
:101F80009A607B68012283F835207B68002283F801
:101F90003420002318461037BD4680BD80B483B07E
:101FA00000AF78607B6893F83530DBB2022B04D049
:101FB0007B6880225A6501230CE07B68052283F848
:101FC00035207B681B681A687B681B6822F0010259
:101FD0001A60002318460C37BD465DF8047B704735
:101FE00080B586B000AF78600023BB608E4B1B6865
:101FF0008E4AA2FB03239B0A7B617B689B6D3B613E
:102000003B691B68FB607B68DB6D08229A40FB68BC
:102010001340002B1AD07B681B681B6803F0040375
:10202000002B13D07B681B681A687B681B6822F042
:1020300004021A607B68DB6D08229A403B699A6053
:102040007B685B6D43F001027B685A657B68DB6DE2
:1020500001229A40FB681340002B12D07B681B685A
:102060005B6903F08003002B0BD07B68DB6D0122E2
:102070009A403B699A607B685B6D43F002027B6823
:102080005A657B68DB6D04229A40FB681340002B85
:1020900012D07B681B681B6803F00203002B0BD077
:1020A0007B68DB6D04229A403B699A607B685B6DBC
:1020B00043F004027B685A657B68DB6D10229A400E
:1020C000FB681340002B43D07B681B681B6803F040
:1020D0000803002B3CD07B68DB6D10229A403B69E3
:1020E0009A607B681B681B6803F48023002B18D060
:1020F0007B681B681B6803F40023002B08D17B68F6
:102100001B6C002B24D07B681B6C786898471FE001
:102110007B689B6C002B1BD07B689B6C7868984716
:1021200016E07B681B681B6803F48073002B07D1E3
:102130007B681B681A687B681B6822F008021A60BB
:102140007B681B6C002B03D07B681B6C78689847FE
:102150007B68DB6D20229A40FB681340002B00F067
:102160008F807B681B681B6803F01003002B00F056
:1021700087807B68DB6D20229A403B699A607B6890
:1021800093F83530DBB2052B36D17B681B681A68B3
:102190007B681B6822F016021A607B681B685A690C
:1021A0007B681B6822F080025A617B681B6C002BE5
:1021B00003D17B689B6C002B07D07B681B681A6877
:1021C0007B681B6822F008021A607B68DB6D3F2287
:1021D0009A403B699A607B68012283F835207B68CE
:1021E000002283F834207B681B6D002B7ED07B6837
:1021F0001B6D7868984779E07B681B681B6803F45F
:102200008023002B1DD07B681B681B6803F4002310
:10221000002B0DD17B685B6C002B31D07B685B6C35
:10222000786898472CE000BF00000020B5814E1B65
:102230007B68DB6B002B23D07B68DB6B786898476F
:102240001EE07B681B681B6803F48073002B0FD1B2
:102250007B681B681A687B681B6822F010021A6092
:102260007B68012283F835207B68002283F83420C4
:102270007B68DB6B002B03D07B68DB6B786898474F
:102280007B685B6D002B32D07B685B6D03F00103D4
:10229000002B22D07B68052283F835207B681B68E1
:1022A0001A687B681B6822F001021A60BB68013360
:1022B000BB607A699A4207D37B681B681B6803F08E
:1022C0000103002BF2D100E000BF7B68012283F8FC
:1022D00035207B68002283F834207B68DB6C002B80
:1022E00005D07B68DB6C7868984700E000BF183742
:1022F000BD4680BD80B485B000AF78607B681B6848
:10230000DBB2103B144AA2FB03231B09FB60134AF8
:10231000FB6813441B781A467B68DA65FB68032B5D
:1023200009D97B681B6823F47F7323F003031A1D0C
:102330007B689A6507E07B681B6823F47F7323F052
:1023400003037A6893657B689B6D18461437BD4616
:102350005DF8047B704700BFABAAAAAA54540008DA
:1023600080B485B000AF78600023FB737B689B6A04
:10237000BB607B689B69002B1FD1BB68032B56D8C1
:1023800001A252F823F000BF99230008AB230008F4
:10239000992300082F2400087B68DB6A03F0807310
:1023A000002B46D00123FB7343E07B68DB6AB3F16B
:1023B000C07F40D10123FB733DE07B689B69B3F58F
:1023C000005F21D1BB68032B37D801A252F823F05C
:1023D000E1230008E7230008E1230008F9230008AF
:1023E0000123FB7330E07B68DB6A03F08073002B12
:1023F00025D00123FB7322E07B68DB6AB3F1C07F49
:102400001FD10123FB731CE0BB68022B03D9BB68FF
:10241000032B03D018E00123FB7315E07B68DB6A14
:1024200003F08073002B0ED00123FB730BE000BF81
:102430000AE000BF08E000BF06E000BF04E000BF04
:1024400002E000BF00E000BFFB7B18461437BD462A
:102450005DF8047B704700BF80B489B000AF78603E
:10246000396000237B6100233B610023BB610023B3
:10247000FB6159E10122FB6902FA03F37B613B68CE
:102480001B687A6913403B613A697B699A4240F064
:1024900048813B685B6803F00303012B05D03B6870
:1024A0005B6803F00303022B30D17B689B68BB6140
:1024B000FB695B00032202FA03F3DB43BA691340B2
:1024C000BB613B68DA68FB695B0002FA03F3BA6937
:1024D0001343BB617B68BA699A607B685B68BB61C8
:1024E0000122FB6902FA03F3DB43BA691340BB61C3
:1024F0003B685B681B0903F00102FB6902FA03F306
:10250000BA691343BB617B68BA695A603B685B6810
:1025100003F00303032B17D07B68DB68BB61FB6907
:102520005B00032202FA03F3DB43BA691340BB6189
:102530003B689A68FB695B0002FA03F3BA691343CC
:10254000BB617B68BA69DA603B685B6803F00303D0
:10255000022B23D1FB69DA087B68083253F822305A
:10256000BB61FB6903F007039B000F2202FA03F330
:10257000DB43BA691340BB613B681A69FB6903F02E
:1025800007039B0002FA03F3BA691343BB61FB69BB
:10259000DA087B680832B96943F822107B681B6847
:1025A000BB61FB695B00032202FA03F3DB43BA69F8
:1025B0001340BB613B685B6803F00302FB695B008F
:1025C00002FA03F3BA691343BB617B68BA691A6004
:1025D0003B685B6803F44033002B00F0A2800023CB
:1025E000FB60574B5B6C564A43F480435364544B37
:1025F0005B6C03F48043FB60FB68524AFB699B08F9
:10260000023352F82330BB61FB6903F003039B00E4
:102610000F2202FA03F3DB43BA691340BB617B6804
:10262000494A934219D07B68484A934213D07B6849
:10263000474A93420DD07B68464A934207D07B6855
:10264000454A934201D1042308E0072306E003230F
:1026500004E0022302E0012300E00023FA6902F013
:10266000030292009340BA691343BB613549FB6989
:102670009B080233BA6941F82320384B9B68BB6141
:102680003B69DB43BA691340BB613B685B6803F499
:102690008013002B03D0BA693B691343BB612F4AF7
:1026A000BB6993602D4BDB68BB613B69DB43BA6957
:1026B0001340BB613B685B6803F40013002B03D03D
:1026C000BA693B691343BB61244ABB69D360234B9E
:1026D0005B68BB613B69DB43BA691340BB613B6824
:1026E0005B6803F40033002B03D0BA693B691343E2
:1026F000BB611A4ABB695360184B1B68BB613B69DD
:10270000DB43BA691340BB613B685B6803F4803309
:10271000002B03D0BA693B691343BB610F4ABB6905
:102720001360FB690133FB61FB690F2B7FF6A2AEDF
:1027300000BF00BF2437BD465DF8047B704700BF73
:10274000003802400038014000000240000402400E
:1027500000080240000C024000100240003C014012
:1027600080B483B000AF78600B467B8013467B70EB
:102770007B78002B03D07A887B689A6103E07B88A2
:102780001A047B689A6100BF0C37BD465DF8047B74
:10279000704780B485B000AF78600B467B807B6863
:1027A0005B69FB607A88FB6813401A04FB68D943B5
:1027B0007B880B401A437B689A6100BF1437BD4683
:1027C0005DF8047B7047000080B582B000AF03461F
:1027D000FB80084B5A69FB881340002B06D0054A42
:1027E000FB885361FB881846FDF7CCFE00BF083715
:1027F000BD4680BD003C014080B586B000AF78602A
:102800007B68002B01D1012367E27B681B6803F022
:102810000103002B75D0884B9B6803F00C03042B3D
:102820000CD0854B9B6803F00C03082B12D1824B14
:102830005B6803F48003B3F5800F0BD17E4B1B68FC
:1028400003F40033002B5BD07B685B68002B57D10F
:10285000012342E27B685B68B3F5803F06D1764B8B
:102860001B68754A43F4803313601DE07B685B6826
:10287000B3F5A02F0CD1704B1B686F4A43F4802333
:1028800013606D4B1B686C4A43F4803313600BE09C
:10289000694B1B68684A23F480331360664B1B68DE
:1028A000654A23F4802313607B685B68002B13D098
:1028B000FEF7B2FE386108E0FEF7AEFE02463B6965
:1028C000D31A642B01D9032307E25B4B1B6803F483
:1028D0000033002BF0D014E0FEF79EFE386108E0D4
:1028E000FEF79AFE02463B69D31A642B01D90323F3
:1028F000F3E1514B1B6803F40033002BF0D100E0EF
:1029000000BF7B681B6803F00203002B63D04A4BB7
:102910009B6803F00C03002B0BD0474B9B6803F024
:102920000C03082B1CD1444B5B6803F48003002B81
:1029300016D1414B1B6803F00203002B05D07B68C6
:10294000DB68012B01D00123C7E13B4B1B6823F05F
:10295000F8027B681B69DB00374913430B603AE0E0
:102960007B68DB68002B20D0344B01221A60FEF715
:1029700053FE386108E0FEF74FFE02463B69D31A6A
:10298000022B01D90323A8E12B4B1B6803F00203A0
:10299000002BF0D0284B1B6823F0F8027B681B69E2
:1029A000DB00254913430B6015E0244B00221A601D
:1029B000FEF732FE386108E0FEF72EFE02463B6964
:1029C000D31A022B01D9032387E11B4B1B6803F0A9
:1029D0000203002BF0D17B681B6803F00803002B77
:1029E00036D07B685B69002B16D0154B01221A602C
:1029F000FEF712FE386108E0FEF70EFE02463B6964
:102A0000D31A022B01D9032367E10B4B5B6F03F051
:102A10000203002BF0D01BE0094B00221A60FEF7E6
:102A2000FBFD38610EE0FEF7F7FD02463B69D31A65
:102A3000022B07D9032350E100380240000047422F
:102A4000800E4742884B5B6F03F00203002BEAD1F4
:102A50007B681B6803F00403002B00F097800023C1
:102A6000FB75814B1B6C03F08053002B0FD10023AF
:102A7000BB607D4B1B6C7C4A43F0805313647A4BE4
:102A80001B6C03F08053BB60BB680123FB75774B65
:102A90001B6803F48073002B18D1744B1B68734AB6
:102AA00043F480731360FEF7B7FD386108E0FEF76A
:102AB000B3FD02463B69D31A022B01D903230CE173
:102AC0006A4B1B6803F48073002BF0D07B689B6813
:102AD000012B06D1644B1B6F634A43F0010313675C
:102AE0001CE07B689B68052B0CD15F4B1B6F5E4A1B
:102AF00043F0040313675C4B1B6F5B4A43F0010315
:102B000013670BE0584B1B6F574A23F00103136701
:102B1000554B1B6F544A23F0040313677B689B6873
:102B2000002B15D0FEF778FD38610AE0FEF774FD42
:102B300002463B69D31A41F28832934201D90323FA
:102B4000CBE0494B1B6F03F00203002BEED014E0E7
:102B5000FEF762FD38610AE0FEF75EFD02463B6962
:102B6000D31A41F28832934201D90323B5E03E4B98
:102B70001B6F03F00203002BEED1FB7D012B05D16F
:102B8000394B1B6C384A23F0805313647B689B6974
:102B9000002B00F0A180344B9B6803F00C03082B42
:102BA0005CD07B689B69022B41D1314B00221A60BB
:102BB000FEF732FD386108E0FEF72EFD02463B6964
:102BC000D31A022B01D9032387E0274B1B6803F09C
:102BD0000073002BF0D17B68DA697B681B6A1A43AB
:102BE0007B685B6A9B011A437B689B6A5B08013BBD
:102BF0001B041A437B68DB6A1B061B4913434B60AB
:102C00001B4B01221A60FEF707FD386108E0FEF752
:102C100003FD02463B69D31A022B01D903235CE072
:102C2000114B1B6803F00073002BF0D054E0104BE5
:102C300000221A60FEF7F0FC386108E0FEF7ECFCB9
:102C400002463B69D31A022B01D9032345E0064B08
:102C50001B6803F00073002BF0D13DE07B689B699B
:102C6000012B07D1012338E00038024000700040FA
:102C7000600047421B4B5B68FB607B689B69012BD4
:102C800028D0FB6803F480027B68DB699A4221D17B
:102C9000FB6803F03F027B681B6A9A421AD1FA680C
:102CA00047F6C07313407A68526A9201934211D179
:102CB000FB6803F440327B689B6A5B08013B1B04A2
:102CC0009A4207D1FB6803F070627B68DB6A1B06DF
:102CD0009A4201D0012300E0002318461837BD4670
:102CE00080BD00BF0038024080B584B000AF78607E
:102CF00039607B68002B01D10123CCE0684B1B6855
:102D000003F007033A689A420CD9654B3A68D2B28D
:102D10001A70634B1B6803F007033A689A4201D0AC
:102D20000123B8E07B681B6803F00203002B20D06E
:102D30007B681B6803F00403002B05D0594B9B688C
:102D4000584A43F4E05393607B681B6803F0080320
:102D5000002B05D0534B9B68524A43F46043936069
:102D6000504B9B6823F0F0027B689B684D491343EE
:102D70008B607B681B6803F00103002B44D07B68E9
:102D80005B68012B07D1474B1B6803F40033002B12
:102D900019D101237FE07B685B68022B03D07B683D
:102DA0005B68032B07D13F4B1B6803F00073002BBC
:102DB00009D101236FE03B4B1B6803F00203002B9A
:102DC00001D1012367E0374B9B6823F003027B6846
:102DD0005B68344913438B60FEF71EFCF8600AE021
:102DE000FEF71AFC0246FB68D31A41F2883293427E
:102DF00001D903234FE02B4B9B6803F00C027B6847
:102E00005B689B009A42EBD1254B1B6803F00703DC
:102E10003A689A420CD2224B3A68D2B21A70204BCE
:102E20001B6803F007033A689A4201D0012332E09D
:102E30007B681B6803F00403002B08D0194B9B68C8
:102E400023F4E0527B68DB68164913438B607B6890
:102E50001B6803F00803002B09D0124B9B6823F476
:102E600060427B681B69DB000E4913438B6000F0F6
:102E700021F802460B4B9B681B0903F00F030A491C
:102E8000CB5C22FA03F3094A1360094B1B6818460E
:102E9000FEF77EFB002318461037BD4680BD00BFFD
:102EA000003C0240003802403C5400080000002072
:102EB000040000202DE9B04F94B000AF00237B64E4
:102EC0000023FB6400233B640023BB64794B9B68B5
:102ED00003F00C03082B0DD0082B00F2E180002B2F
:102EE00002D0042B03D0DBE0734BBB64DBE0734BFD
:102EF000BB64D8E06F4B5B6803F03F037B646D4BB2
:102F00005B6803F48003002B63D06A4B5B689B090A
:102F10000022BB63FA63BB6BC3F308033B6300236C
:102F20007B63D7E90C4522462B464FF000004FF05B
:102F30000001590141EAD261500102460B46214687
:102F4000511A3961294663EB01037B614FF000029E
:102F50004FF00003D7E904AB59468B01514643EAD1
:102F6000916351468A015146B2EB0108594663EB21
:102F700001094FF000024FF000034FEAC90343EA92
:102F800058734FEAC80290469946234618EB03034C
:102F9000BB602B4649EB0303FB604FF000024FF090
:102FA0000003D7E9024529464B02214643EAD153A3
:102FB00021464A02104619467B6C0022BB62FA6227
:102FC000D7E90A23FDF75CF902460B461346FB647A
:102FD00058E0384B5B689B09002218461146C0F345
:102FE00008033B6200237B62D7E9088942464B46CF
:102FF0004FF000004FF00001590141EAD261500149
:1030000002460B464146B2EB010A494663EB010B0F
:103010004FF000024FF000034FEA8B1343EA9A632C
:103020004FEA8A12B2EB0A0463EB0B054FF0000281
:103030004FF00003EB0043EA5473E20014461D46D0
:103040004346E3183B604B4645EB03037B604FF080
:1030500000024FF00003D7E9004529468B022146C4
:1030600043EA915321468A02104619467B6C00229E
:10307000BB61FA61D7E90623FDF702F902460B4668
:103080001346FB640B4B5B681B0C03F0030301331B
:103090005B003B64FA6C3B6CB2FBF3F3BB6402E095
:1030A000054BBB6400BFBB6C18465037BD46BDE83E
:1030B000B08F00BF003802400024F40000127A00F4
:1030C00080B400AF034B1B681846BD465DF8047B17
:1030D000704700BF0000002080B500AFFFF7F0FF91
:1030E0000246054B9B689B0A03F007030349CB5C30
:1030F00022FA03F3184680BD003802404C54000801
:1031000080B500AFFFF7DCFF0246054B9B685B0B09
:1031100003F007030349CB5C22FA03F3184680BD92
:10312000003802404C54000880B582B000AF78608F
:103130007B68002B01D1012341E07B6893F83D308F
:10314000DBB2002B06D17B68002283F83C20786834
:10315000FDF70EFF7B68022283F83D207B681A682A
:103160007B6804331946104600F0A0F97B68012201
:1031700083F846207B68012283F83E207B68012289
:1031800083F83F207B68012283F840207B6801227E
:1031900083F841207B68012283F842207B6801226A
:1031A00083F843207B68012283F844207B68012256
:1031B00083F845207B68012283F83D2000231846D0
:1031C0000837BD4680BD000080B584B000AF786090
:1031D00039603B68002B09D17B6893F83E30DBB245
:1031E000012B14BF01230023DBB222E03B68042B38
:1031F00009D17B6893F83F30DBB2012B14BF012368
:103200000023DBB215E03B68082B09D17B6893F8FB
:103210004030DBB2012B14BF01230023DBB208E0F6
:103220007B6893F84130DBB2012B14BF01230023EC
:10323000DBB2002B01D0012368E03B68002B04D1F6
:103240007B68022283F83E2013E03B68042B04D104
:103250007B68022283F83F200BE03B68082B04D1F7
:103260007B68022283F8402003E07B68022283F817
:1032700041207B681B6801223968184600F022FB58
:103280007B681B68234A934207D17B681B685A6C92
:103290007B681B6842F400425A647B681B681D4AC5
:1032A000934218D07B681B68B3F1804F13D07B68C2
:1032B0001B68194A93420ED07B681B68174A9342D9
:1032C00009D07B681B68164A934204D07B681B6850
:1032D000144A934211D17B681B689B6803F0070373
:1032E000FB60FB68062B10D07B681B681A687B6844
:1032F0001B6842F001021A6007E07B681B681A68CD
:103300007B681B6842F001021A60002318461037E0
:10331000BD4680BD000001400004004000080040A0
:10332000000C00400040014080B586B000AFF8605E
:10333000B9607A600023FB75FB6893F83C30012B81
:1033400001D10223AEE0FB68012283F83C207B68B8
:103350000C2B00F29F8001A252F823F09133000859
:10336000953400089534000895340008D1330008DE
:10337000953400089534000895340008133400088B
:10338000953400089534000895340008533400083B
:10339000FB681B68B968184600F008F9FB681B68F1
:1033A0009A69FB681B6842F008029A61FB681B6817
:1033B0009A69FB681B6822F004029A61FB681B682B
:1033C0009969BB681A69FB681B680A439A6164E0E3
:1033D000FB681B68B968184600F04EF9FB681B686B
:1033E0009A69FB681B6842F400629A61FB681B687B
:1033F0009A69FB681B6822F480629A61FB681B680B
:103400009969BB681B691A02FB681B680A439A61C9
:1034100043E0FB681B68B968184600F099F9FB683F
:103420001B68DA69FB681B6842F00802DA61FB6816
:103430001B68DA69FB681B6822F00402DA61FB682A
:103440001B68D969BB681A69FB681B680A43DA61A3
:1034500023E0FB681B68B968184600F0E3F9FB68D5
:103460001B68DA69FB681B6842F40062DA61FB687A
:103470001B68DA69FB681B6822F48062DA61FB680A
:103480001B68D969BB681B691A02FB681B680A4381
:10349000DA6102E00123FB7500BFFB68002283F8BC
:1034A0003C20FB7D18461837BD4680BD80B485B0F2
:1034B00000AF786039607B681B68FB607B68344ACA
:1034C00093420FD07B68B3F1804F0BD07B68314AB9
:1034D000934207D07B68304A934203D07B682F4ADF
:1034E000934208D1FB6823F07003FB603B685B6884
:1034F000FA681343FB607B68254A93421BD07B68C4
:10350000B3F1804F17D07B68224A934213D07B6877
:10351000214A93420FD07B68204A93420BD07B68AC
:103520001F4A934207D07B681E4A934203D07B68B0
:103530001D4A934208D1FB6823F44073FB603B684B
:10354000DB68FA681343FB60FB6823F080023B688A
:103550005B691343FB607B68FA681A603B689A6892
:103560007B68DA623B681A687B689A627B68084A03
:10357000934203D13B681A697B681A637B68012216
:103580005A6100BF1437BD465DF8047B704700BF29
:10359000000001400004004000080040000C004012
:1035A00000400140004401400048014080B487B021
:1035B00000AF786039607B681B6A23F001027B688A
:1035C0001A627B681B6A7B617B685B683B617B6816
:1035D0009B69FB60FB6823F07003FB60FB6823F0D2
:1035E0000303FB603B681B68FA681343FB607B695D
:1035F00023F002037B613B689B687A6913437B611C
:103600007B681C4A93420CD17B6923F008037B61E1
:103610003B68DB687A6913437B617B6923F00403B1
:103620007B617B68134A934211D13B6923F4807319
:103630003B613B6923F400733B613B685B693A691A
:1036400013433B613B689B693A6913433B617B6869
:103650003A695A607B68FA689A613B685A687B6885
:103660005A637B687A691A6200BF1C37BD465DF8F1
:10367000047B70470000014080B487B000AF7860E1
:1036800039607B681B6A23F010027B681A627B68D2
:103690001B6A7B617B685B683B617B689B69FB6045
:1036A000FB6823F4E043FB60FB6823F44073FB609A
:1036B0003B681B681B02FA681343FB607B6923F0BD
:1036C00020037B613B689B681B017A6913437B6124
:1036D0007B681E4A93420DD17B6923F080037B6196
:1036E0003B68DB681B017A6913437B617B6923F0CC
:1036F00040037B617B68154A934213D13B6923F4F5
:1037000080633B613B6923F400633B613B685B6919
:103710009B003A6913433B613B689B699B003A6994
:1037200013433B617B683A695A607B68FA689A6127
:103730003B685A687B689A637B687A691A6200BF43
:103740001C37BD465DF8047B704700BF0000014098
:1037500080B487B000AF786039607B681B6A23F45F
:1037600080727B681A627B681B6A7B617B685B681E
:103770003B617B68DB69FB60FB6823F07003FB60E7
:10378000FB6823F00303FB603B681B68FA68134384
:10379000FB607B6923F400737B613B689B681B02C1
:1037A0007A6913437B617B681D4A93420DD17B6923
:1037B00023F400637B613B68DB681B027A69134377
:1037C0007B617B6923F480637B617B68144A93424D
:1037D00013D13B6923F480533B613B6923F40053CD
:1037E0003B613B685B691B013A6913433B613B6882
:1037F0009B691B013A6913433B617B683A695A60D4
:103800007B68FA68DA613B685A687B68DA637B68D0
:103810007A691A6200BF1C37BD465DF8047B7047A9
:103820000000014080B487B000AF786039607B68E9
:103830001B6A23F480527B681A627B681B6A3B61B7
:103840007B685B687B617B68DB69FB60FB6823F4FA
:10385000E043FB60FB6823F44073FB603B681B683C
:103860001B02FA681343FB603B6923F400533B617E
:103870003B689B681B033A6913433B617B68104AB2
:10388000934209D17B6923F480437B613B685B6988
:103890009B017A6913437B617B687A695A607B6814
:1038A000FA68DA613B685A687B681A647B683A692F
:1038B0001A6200BF1C37BD465DF8047B704700BF2D
:1038C0000000014080B487B000AFF860B9607A6052
:1038D000BB6803F01F03012202FA03F37B61FB685C
:1038E0001A6A7B69DB431A40FB681A62FB681A6A32
:1038F000BB6803F01F03796801FA03F31A43FB68FE
:103900001A6200BF1C37BD465DF8047B704700009B
:1039100080B485B000AF786039607B6893F83C3044
:10392000012B01D1022350E07B68012283F83C2067
:103930007B68022283F83D207B681B685B68FB6024
:103940007B681B689B68BB60FB6823F07003FB60AF
:103950003B681B68FA681343FB607B681B68FA6866
:103960005A607B681B681C4A934218D07B681B68AE
:10397000B3F1804F13D07B681B68184A93420ED076
:103980007B681B68164A934209D07B681B68154AFE
:10399000934204D07B681B68134A93420CD1BB68E6
:1039A00023F08003BB603B685B68BA681343BB606D
:1039B0007B681B68BA689A607B68012283F83D20A7
:1039C0007B68002283F83C20002318461437BD464C
:1039D0005DF8047B704700BF000001400004004018
:1039E00000080040000C00400040014080B485B059
:1039F00000AF786039600023FB607B6893F83C304F
:103A0000012B01D102233DE07B68012283F83C2099
:103A1000FB6823F0FF023B68DB681343FB60FB6835
:103A200023F440723B689B681343FB60FB6823F4FC
:103A300080623B685B681343FB60FB6823F40062B1
:103A40003B681B681343FB60FB6823F480523B68B0
:103A50001B691343FB60FB6823F400523B685B69FE
:103A60001343FB60FB6823F480423B68DB6913432C
:103A7000FB607B681B68FA685A647B68002283F8E5
:103A80003C20002318461437BD465DF8047B704780
:103A900080B582B000AF78607B68002B01D1012334
:103AA0003FE07B6893F83D30DBB2002B06D17B68AA
:103AB000002283F83C207868FDF78AFB7B6824228B
:103AC00083F83D207B681B68DA687B681B6822F4FA
:103AD0000052DA60786800F07BFD7B681B681A6929
:103AE0007B681B6822F490421A617B681B685A69E4
:103AF0007B681B6822F02A025A617B681B68DA68BF
:103B00007B681B6842F40052DA607B6800221A640A
:103B10007B68202283F83D207B68202283F83E20AA
:103B2000002318460837BD4680BD80B58AB002AF75
:103B3000F860B9603B601346FB8000237B61FB6843
:103B400093F83D30DBB2202B7CD1BB68002B02D038
:103B5000FB88002B01D1012375E0FB6893F83C3012
:103B6000012B01D102236EE0FB68012283F83C2087
:103B7000FB6800221A64FB68212283F83D20FDF7D0
:103B80004BFD7861FB68FA889A84FB68FA88DA84CE
:103B9000FB689B68B3F5805F08D1FB681B69002B4D
:103BA00004D10023FB61BB68BB6103E0BB68FB6120
:103BB0000023BB61FB68002283F83C202AE03B68BD
:103BC00000937B6900228021F86800F0F9FA03462F
:103BD000002B01D0032336E0FB69002B0BD1BB691E
:103BE0001B881A46FB681B68C2F308025A60BB694F
:103BF0000233BB6107E0FB691A78FB681B685A60F7
:103C0000FB690133FB61FB68DB8C9BB2013B9AB221
:103C1000FB68DA84FB68DB8C9BB2002BCFD13B685E
:103C200000937B6900224021F86800F0C9FA03463E
:103C3000002B01D0032306E0FB68202283F83D20FF
:103C4000002300E0022318462037BD4680BD000057
:103C500080B5BAB000AF78607B681B681B68C7F896
:103C6000E4307B681B68DB68C7F8E0307B681B6862
:103C70005B69C7F8DC300023C7F8D8300023C7F8E9
:103C8000D430D7F8E43003F00F03C7F8D830D7F8B2
:103C9000D830002B0FD1D7F8E43003F02003002BED
:103CA00009D0D7F8E03003F02003002B03D0786868
:103CB00000F0D3FB56E2D7F8D830002B00F0DE80BE
:103CC000D7F8DC3003F00103002B06D1D7F8E03041
:103CD00003F49073002B00F0D180D7F8E43003F0A8
:103CE0000103002B0BD0D7F8E03003F48073002BD6
:103CF00005D07B681B6C43F001027B681A64D7F81F
:103D0000E43003F00403002B0BD0D7F8DC3003F0D1
:103D10000103002B05D07B681B6C43F002027B681B
:103D20001A64D7F8E43003F00203002B0BD0D7F865
:103D3000DC3003F00103002B05D07B681B6C43F0E3
:103D400004027B681A64D7F8E43003F00803002B00
:103D500011D0D7F8E03003F02003002B05D1D7F8BD
:103D6000DC3003F00103002B05D07B681B6C43F0B3
:103D700008027B681A647B681B6C002B00F0ED81E5
:103D8000D7F8E43003F02003002B08D0D7F8E03058
:103D900003F02003002B02D0786800F05EFB7B6804
:103DA0001B685B6903F04003402B0CBF0123002319
:103DB000DBB2C7F8D4307B681B6C03F00803002B20
:103DC00003D1D7F8D430002B4FD0786800F066FAD2
:103DD0007B681B685B6903F04003402B41D17B6823
:103DE0001B681433C7F89C30D7F89C3053E8003F69
:103DF000C7F89830D7F8983023F04003C7F8D03090
:103E00007B681B681433D7F8D020C7F8A820C7F800
:103E1000A430D7F8A410D7F8A82041E80023C7F8A9
:103E2000A030D7F8A030002BD9D17B689B6B002B3A
:103E300013D07B689B6B7D4A1A657B689B6B184629
:103E4000FEF7ACF80346002B16D07B689B6B1B6D0E
:103E50007A68926B104698470EE0786800F09AF9FD
:103E60000AE0786800F096F906E0786800F092F9C8
:103E70007B6800221A6470E100BF6EE17B681B6BF7
:103E8000012B40F04A81D7F8E43003F01003002BF7
:103E900000F04381D7F8E03003F01003002B00F06E
:103EA0003C810023BB607B681B681B68BB607B6830
:103EB0001B685B68BB60BB687B681B685B6903F061
:103EC0004003402B40F0B4807B689B6B1B685B68B1
:103ED000A7F8BE30B7F8BE30002B00F040817B68F9
:103EE0009B8DB7F8BE209A4280F039817B68B7F885
:103EF000BE20DA857B689B6BDB69B3F5807F00F0C1
:103F000088807B681B680C33C7F88830D7F8883006
:103F100053E8003FC7F88430D7F8843023F4807327
:103F2000C7F8B8307B681B680C33D7F8B820C7F8DF
:103F30009420C7F89030D7F89010D7F8942041E833
:103F40000023C7F88C30D7F88C30002BD9D17B6890
:103F50001B6814337B677B6F53E8003F3B673B6F05
:103F600023F00103C7F8B4307B681B681433D7F81B
:103F7000B420C7F88020FB67F96FD7F8802041E8AC
:103F80000023BB67BB6F002BE1D17B681B68143338
:103F90003B663B6E53E8003FFB65FB6D23F040033F
:103FA000C7F8B0307B681B681433D7F8B020FA66C6
:103FB000BB66B96EFA6E41E800237B667B6E002B10
:103FC000E3D17B68202283F83E207B6800221A63BD
:103FD0007B681B680C33FB64FB6C53E8003FBB64DD
:103FE000BB6C23F01003C7F8AC307B681B680C3344
:103FF000D7F8AC20BA657B65796DBA6D41E80023CE
:104000003B653B6D002BE3D17B689B6B1846FDF74E
:1040100055FF7B689A8D7B68DB8D9BB2D31A9BB270
:104020001946786800F0C0F899E000BF63430008C3
:104030007B689A8D7B68DB8D9BB2D31AA7F8CE3054
:104040007B68DB8D9BB2002B00F08B80B7F8CE3005
:10405000002B00F086807B681B680C33BB63BB6B56
:1040600053E8003F7B637B6B23F49073C7F8C83041
:104070007B681B680C33D7F8C8207A643B64396CC2
:104080007A6C41E80023FB63FB6B002BE3D17B6878
:104090001B6814337B627B6A53E8003F3B623B6AD8
:1040A00023F00103C7F8C4307B681B681433D7F8CA
:1040B000C4203A63FB62F96A3A6B41E80023BB62B1
:1040C000BB6A002BE3D17B68202283F83E207B680B
:1040D00000221A637B681B680C333B613B6953E821
:1040E000003FFB60FB6823F01003C7F8C0307B681B
:1040F0001B680C33D7F8C020FA61BB61B969FA6953
:1041000041E800237B617B69002BE3D1B7F8CE3017
:104110001946786800F048F823E0D7F8E43003F057
:104120008003002B09D0D7F8E03003F08003002B88
:1041300003D0786800F029F914E0D7F8E43003F0F0
:104140004003002B0ED0D7F8E03003F04003002BE3
:1041500008D0786800F069F904E000BF02E000BF11
:1041600000E000BFE837BD4680BD00BF80B483B02B
:1041700000AF786000BF0C37BD465DF8047B704728
:1041800080B483B000AF786000BF0C37BD465DF8E7
:10419000047B704780B483B000AF786000BF0C37F9
:1041A000BD465DF8047B704780B483B000AF786093
:1041B0000B467B8000BF0C37BD465DF8047B704723
:1041C00080B590B000AFF860B9603B601346FB71FA
:1041D00050E0BB6CB3F1FF3F4CD0BB6C002B07D061
:1041E000FDF71AFA02463B68D31ABA6C9A4241D2DA
:1041F000FB681B680C33BB62BB6A53E8003F7B6201
:104200007B6A23F4D073FB63FB681B680C33FA6B87
:104210007A633B63396B7A6B41E80023FB62FB6A8C
:10422000002BE5D1FB681B6814337B617B6953E885
:10423000003F3B613B6923F00103BB63FB681B68E4
:104240001433BA6B3A62FB61F9693A6A41E80023B8
:10425000BB61BB69002BE5D1FB68202283F83D20C0
:10426000FB68202283F83E20FB68002283F83C2074
:1042700003230FE0FB681B681A68BB681340BA6829
:104280009A420CBF01230023DBB21A46FB799A4203
:104290009FD0002318464037BD4680BD80B495B0FE
:1042A00000AF78607B681B680C337B637B6B53E8E3
:1042B000003F3B633B6B23F49073FB647B681B689C
:1042C0000C33FA6C3A64FB63F96B3A6C41E80023F7
:1042D000BB63BB6B002BE5D17B681B6814333B626F
:1042E0003B6A53E8003FFB61FB6923F00103BB64B9
:1042F0007B681B681433BA6CFA62BB62B96AFA6AEB
:1043000041E800237B627B6A002BE5D17B681B6B55
:10431000012B19D17B681B680C33FB60FB6853E8E9
:10432000003FBB60BB6823F010037B647B681B68A5
:104330000C337A6CBA617B617969BA6941E8002310
:104340003B613B69002BE5D17B68202283F83E204E
:104350007B6800221A6300BF5437BD465DF8047BBA
:10436000704780B584B000AF78607B689B6BFB6062
:10437000FB680022DA85FB680022DA84F868FFF720
:1043800009FF00BF1037BD4680BD80B485B000AFC7
:1043900078607B6893F83D30DBB2212B3ED17B689F
:1043A0009B68B3F5805F14D17B681B69002B10D12B
:1043B0007B681B6AFB60FB681B881A467B681B686E
:1043C000C2F308025A607B681B6A9A1C7B681A62F7
:1043D00008E07B681B6A591C7A6811621A787B684E
:1043E0001B685A607B68DB8C9BB2013B9BB27A688E
:1043F0001946D184002B0FD17B681B68DA687B6873
:104400001B6822F08002DA607B681B68DA687B68D0
:104410001B6842F04002DA60002300E002231846E5
:104420001437BD465DF8047B704780B582B000AF9D
:1044300078607B681B68DA687B681B6822F0400242
:10444000DA607B68202283F83D207868FFF78EFED3
:10445000002318460837BD4680BD80B58CB000AF3C
:1044600078607B6893F83E30DBB2222B40F0AB8063
:104470007B689B68B3F5805F17D17B681B69002B55
:1044800013D10023FB627B689B6ABB627B681B685D
:104490005B689BB2C3F308039AB2BB6A1A807B685D
:1044A0009B6A9A1C7B689A6226E07B689B6AFB6227
:1044B0000023BB627B689B68B3F5805F07D07B6895
:1044C0009B68002B0AD17B681B69002B06D17B6897
:1044D0001B685B68DAB2FB6A1A7008E07B681B68CD
:1044E0005B68DBB203F07F03DAB2FB6A1A707B68A9
:1044F0009B6A5A1C7B689A627B68DB8D9BB2013B8E
:104500009BB27A681946D185002B5AD17B681B680B
:10451000DA687B681B6822F02002DA607B681B681F
:10452000DA687B681B6822F48072DA607B681B683B
:104530005A697B681B6822F001025A617B6820225D
:1045400083F83E207B681B6B012B35D17B680022F2
:104550001A637B681B680C337B617B6953E8003FFF
:104560003B613B6923F010037B627B681B680C3363
:104570007A6A3A62FB61F9693A6A41E80023BB61F1
:10458000BB69002BE5D17B681B681B6803F0100337
:10459000102B0AD10023FB607B681B681B68FB6043
:1045A0007B681B685B68FB60FB687B689B8D1946BA
:1045B0007868FFF7F9FD02E07868FFF7E1FD002376
:1045C00002E0002300E0022318463037BD4680BDDC
:1045D0002DE9B04FC0B000AFC7F8F400D7F8F43001
:1045E0001B681B6923F44050D7F8F430D968D7F81A
:1045F000F4301A6840EA01031361D7F8F4309A687E
:10460000D7F8F4301B691A43D7F8F4305B691A43C2
:10461000D7F8F430DB691343C7F8F830D7F8F43033
:104620001B68DB6823F4164121F00C01D7F8F43045
:104630001A68D7F8F8300B43D360D7F8F4301B680A
:104640005B6923F44070D7F8F4309969D7F8F430F7
:104650001A6840EA01035361D7F8F4301A688F4BA7
:104660009A4205D0D7F8F4301A688D4B9A4204D19B
:10467000FEF746FDC7F8FC0003E0FEF72DFDC7F886
:10468000FC00D7F8F430DB69B3F5004F40F00C8143
:10469000D7F8FC300022C7F8E830C7F8EC20D7E99B
:1046A0003A4522462B469118B9655B41FB65D7E92F
:1046B0001623214612EB0108294643EB01094FF06E
:1046C00000024FF000034FEAC90343EA58734FEA70
:1046D000C80290469946234618EB0303C7F8E0301A
:1046E0002B4649EB0303C7F8E430D7F8F4305B6896
:1046F0000022C7F8D830C7F8DC20D7E936120B46BD
:10470000DB183B65134642EB03037B65D7E91423B3
:10471000D7E93801FBF7B4FD02460B46614BA3FB1A
:1047200002235B091C01D7F8FC300022C7F8D03007
:10473000C7F8D420D7E9348942464B469118B9646A
:104740005B41FB64D7E91223414612EB010A49465B
:1047500043EB010B4FF000024FF000034FEACB0395
:1047600043EA5A734FEACA0292469B4643461AEB03
:104770000303C7F8C8304B464BEB0303C7F8CC30F4
:10478000D7F8F4305B680022C7F8C030C7F8C420FF
:10479000D7E930120B46DB183B64134642EB0303A8
:1047A0007B64D7E91023D7E93201FBF769FD0246A4
:1047B0000B4611463B4BA3FB01235B09642202FB22
:1047C00003F3CB1ADB0003F13202364BA3FB0223C7
:1047D0005B095B0003F4F8731C44D7F8FC3000223B
:1047E000C7F8B830C7F8BC20D7E92E8942464B46F7
:1047F0009118B9635B41FB63D7E90E234146511819
:10480000396349464B417B634FF000024FF0000390
:10481000D7E90CAB5946CB00514643EA5173514698
:10482000CA0010461946034642469B18C7F8B030E6
:104830004B460A4642EB0303C7F8B430D7F8F430CE
:104840005B680022C7F8A830C7F8AC20D7E92A1265
:104850000B46DB18BB62134642EB0303FB62D7E94E
:104860000A23D7E92C01FBF70BFD02460B460D4B43
:10487000A3FB02135B09642101FB03F3D31ADB00E2
:104880003233084AA2FB03235B0903F00702D7F87F
:10489000F4301B6822449A6005E100BF001001401B
:1048A000001401401F85EB51D7F8FC300022C7F8F7
:1048B000A030C7F8A420D7E9288942464B46911872
:1048C00039625B417B62D7E9082341465418494667
:1048D00043EB01054FF000024FF00003EB0043EA09
:1048E0005473E20014461D464346E318C7F8983057
:1048F0004B4645EB0303C7F89C30D7F8F4305B68B0
:104900000022C7F89030C7F894204FF000024FF013
:104910000003D7E9244529468B00214643EA9173D9
:1049200021468A00D7E92601FBF7AAFC02460B467E
:10493000604BA3FB02235B091C01D7F8FC3000226B
:10494000C7F88830C7F88C20D7E9228942464B4601
:104950009118B9615B41FB61D7E9062341465118C3
:10496000396149464B417B614FF000024FF0000333
:10497000D7E904AB5946CB00514643EA517351463F
:10498000CA0010461946034642469B18C7F88030B5
:104990004B460A4642EB0303C7F88430D7F8F4309D
:1049A0005B680022BB67FA674FF000024FF000031C
:1049B000D7E91E8949468B00414643EA9173414637
:1049C0008A00D7E92001FBF75BFC02460B46394B16
:1049D000A3FB02135B09642101FB03F3D31A1B0140
:1049E0003233344AA2FB03235B0903F0F0031C4477
:1049F000D7F8FC3000223B677A67D7E91C8942462A
:104A00004B469118B9605B41FB60D7E902234146F0
:104A10005118396049464B417B604FF000024FF01E
:104A20000003D7E900AB5946CB00514643EA517326
:104A30005146CA0010461946034642469B18BB66BB
:104A40004B460A4642EB0303FB66D7F8F4305B683B
:104A500000223B667A664FF000024FF00003D7E970
:104A6000188949468B00414643EA917341468A00C2
:104A7000D7E91A01FBF704FC02460B460D4BA3FBDA
:104A800002135B09642101FB03F3D31A1B013233C8
:104A9000084AA2FB03235B0903F00F02D7F8F430A6
:104AA0001B6822449A6000BF07F58077BD46BDE8C9
:104AB000B08F00BF1F85EB51014B1868704700BFD6
:104AC0000C00002070B50D4D0D4C641BA410002689
:104AD000A64209D10B4D0C4C00F08EFC641BA410B7
:104AE0000026A64205D170BD55F8043B9847013613
:104AF000EEE755F8043B98470136F2E79854000872
:104B000098540008985400089C5400080244034636
:104B1000934200D1704703F8011BF9E70EB400B5CA
:104B20009CB01DAB029006906FF0004109480791C0
:104B30000491094953F8042B05910068019302A9D7
:104B400000F068F8029B00221A701CB05DF804EBBC
:104B500003B070470C0000200802FFFF2DE9F0476A
:104B60008E689E4282460C4690461F4638D88A89F7
:104B700012F4906F32D025680969A5EB01096569C7
:104B800005EB450505EBD57501334B446D109D4292
:104B900038BF1D46530531D5294600F063FB064654
:104BA00050B90C23CAF80030A38943F04003A38115
:104BB0004FF0FF30BDE8F08721694A4600F0BEFAA9
:104BC000A38923F4906343F08003A3812661656188
:104BD0004E44A5EB09052660A5603E46BE4200D9BD
:104BE0003E4620683246414600F0B6FAA3689B1B59
:104BF000A3602368334423600020DBE72A4600F0EB
:104C0000A5FB06460028E1D12169504600F0BEFA16
:104C1000C7E700002DE9F04F98468B891B069DB031
:104C200007460D4614460ED50B6963B9402100F0C6
:104C300019FB2860286120B90C233B604FF0FF303E
:104C4000D1E040236B610023099320238DF82930A4
:104C5000CDF80C803023DFF8A8818DF82A304FF092
:104C6000010923469A4613F8012B0AB1252AF9D1E6
:104C7000BAEB040B0BD05B46224629463846FFF7B9
:104C80006DFF013000F0AA80099A5A4409929AF8FF
:104C90000030002B00F0A28000234FF0FF32CDE95E
:104CA00005230AF1010A049307938DF853301A93F0
:104CB0005446052214F8011B5148FBF791FA049A57
:104CC000D8B9D00644BF20238DF85330110744BF14
:104CD0002B238DF853309AF800302A2B15D0079AE1
:104CE000544600204FF00A0C214611F8013B303B9E
:104CF000092B4ED9B0B1079214E0A0EB080309FAD2
:104D000003F313430493A246D2E7039B191D1B68C8
:104D10000391002BBBBF5B4242F002020793079353
:104D2000B8BF049223782E2B0CD163782A2B35D16F
:104D3000039B1A1D1B680392002BB8BF4FF0FF3373
:104D400002340593DFF8C8A0217803225046FBF710
:104D500047FA40B14023A0EB0A0003FA00F0049B9D
:104D600003430134049314F8011B26488DF82810DE
:104D70000622FBF735FA002838D0234B1BBB039BD8
:104D8000073323F0070308330393099B3344099344
:104D900067E70CFB02320C460120A5E70023013433
:104DA000059319464FF00A0C204610F8012B303AB3
:104DB000092A03D9002BC5D00591C3E70CFB0121BB
:104DC00004460123F0E703AB00932A460F4B04A9E6
:104DD0003846AFF30080421C0646D6D1AB895B064D
:104DE0003FF52CAF09981DB0BDE8F08F03AB0093E1
:104DF0002A46064B04A9384600F07AF8EBE700BFD4
:104E00005C54000866540008000000005D4B000878
:104E1000625400082DE9F047164699468A680B69E6
:104E2000DDF820809342B8BF1346336091F84320E9
:104E300007460C460AB1013333602368990642BF26
:104E4000336802333360256815F0060506D104F196
:104E5000190AE36832689B1AAB4226DC94F84320B7
:104E6000131E226818BF012392062BD404F14302BB
:104E700049463846C04701301ED02368E56832688D
:104E800003F00603042B08BFAD1AA36822690CBF08
:104E900025EAE57500259342C4BF9B1AED1800264C
:104EA0001A34B5421AD1002008E00123524649467F
:104EB0003846C047013003D14FF0FF30BDE8F087DE
:104EC0000135C6E7E1185A1C302081F8430022441E
:104ED00094F8451082F843100233C7E701232246B5
:104EE00049463846C0470130E6D00136D9E70000D0
:104EF0002DE9FF470F7E0C9D782F914680460C468A
:104F00009A4601F1430207D8622F0AD8002F00F019
:104F1000D880582F00F0A38004F1420584F8427035
:104F20003AE0A7F16303152BF6D801A151F823F05D
:104F3000894F00089D4F0008194F0008194F0008BD
:104F4000194F0008194F00089D4F0008194F00081D
:104F5000194F0008194F0008194F0008A950000800
:104F6000CD4F00088B500008194F0008194F00085A
:104F7000CB500008194F0008CD4F0008194F00080A
:104F8000194F0008935000082B681A1D1B682A60EF
:104F900004F1420584F842300123A3E02068296827
:104FA000060601F104030AD50E682B60002E03DA11
:104FB0002D23764284F843305E480A2319E00E68B8
:104FC0002B6010F0400F18BF36B2EFE72B68206857
:104FD000191D2960010601D51E6802E04606FBD5B1
:104FE0001E8854486F2F0CBF08230A23002184F821
:104FF00043106568A560002DA2BF216821F004015F
:1050000021600EB9002D4DD01546B6FBF3F103FB20
:105010001167C75D05F8017D3746BB420E46F4D9DE
:10502000082B0BD12368DE0708D5236961689942F4
:10503000DEBF302305F8013C05F1FF35521B22612C
:10504000CDF800A04B4603AA21464046FFF7E2FEFA
:1050500001304CD14FF0FF3004B0BDE8F087354847
:1050600081F845702968236851F8046B29601D0692
:1050700014D5DF0744BF43F0200323601EB9236823
:1050800023F0200323601023B0E7236843F02003BC
:1050900023607823284884F84530E3E7590648BF61
:1050A000B6B2E6E71546BBE72B6826686169181DAE
:1050B000286035061B6801D5196002E07006FBD533
:1050C0001980002323611546BAE72B681A1D2A6050
:1050D0001D68626800212846FBF782F808B1401B72
:1050E000606063682361002384F84330A8E7236984
:1050F0002A4649464046D0470130ABD023689B073B
:1051000013D4E068039B9842B8BF1846A4E7012374
:10511000324649464046D04701309BD00135E368CE
:1051200003995B1AAB42F2DCEBE7002504F11906A8
:10513000F5E700BF6D5400087E5400080A44914210
:1051400000F1FF3300D1704710B511F8014B03F89F
:10515000014F9142F9D110BD884210B501EB020414
:1051600002D98442234607D8431EA14208D011F831
:10517000012B03F8012FF8E7024401468A4200D1CF
:1051800010BD13F8014D02F8014DF7E737B50029BE
:1051900044D051F8043C0190002BA1F10404B8BFA5
:1051A000E41800F013F91E4A0198136833B96360DC
:1051B000146003B0BDE8304000F00EB9A34208D936
:1051C000256861198B4201BF19685B684919216024
:1051D000EDE71A465B680BB1A342FAD9116855187E
:1051E000A5420BD1246821445418A3421160E0D198
:1051F0001C685B68536021441160DAE702D90C2314
:105200000360D6E7256861198B4204BF19685B68A3
:10521000636004BF491921605460CAE703B030BD20
:105220004803002070B50E4E0C463168054611B992
:1052300000F0BCF830602146284600F0B7F8431C67
:105240000AD0C41C24F00304A04207D0211A284627
:1052500000F0ACF8013001D14FF0FF34204670BDB2
:105260004C0300202DE9F041CD1C25F00305083545
:105270000C2D38BF0C25002D074601DBA94205D9AE
:105280000C233B6000263046BDE8F0812E4E00F036
:105290009DF833681C4634BB29463846FFF7C2FFE9
:1052A000431C04464DD134682646002E40D1236865
:1052B0003146384604EB030800F078F880453AD1CF
:1052C000216803356D1A25F0030508350C2D38BF0C
:1052D0000C2529463846FFF7A5FF01302BD023685F
:1052E0002B4423600EE02268521B1ED40B2A16D9D1
:1052F0006119A342256018BF5960636808BF316017
:1053000062514B60384604F10B0600F065F826F058
:105310000706231DF21AB6D09B1BA350B3E76268A1
:10532000A3420CBF32605A60ECE723466468B2E7E0
:1053300034467668B9E70C233B60384600F04CF8F9
:10534000A1E72560DEE700BF480300202DE9F0411A
:10535000804614460E4621B9BDE8F0411146FFF7DC
:1053600081BF2AB9FFF712FF25462846BDE8F08124
:1053700000F038F88442074602D8B4EB500F12D838
:1053800021464046FFF76EFF05460028EDD0BC429F
:105390002246314628BF3A46FFF7D0FE3146404606
:1053A000FFF7F4FEE1E73546DFE7000038B5064DCC
:1053B0000023044608462B60FCF756F8431C02D134
:1053C0002B6803B1236038BD50030020014800F072
:1053D00011B800BF54030020014800F00CB800BF12
:1053E0005403002051F8043C181F002BBCBF0B587D
:1053F000C018704770477047F8B500BFF8BC08BCCC
:105400009E467047F8B500BFF8BC08BC9E46704782
:10541000256400002068656C6C6F2066726F6D20DB
:1054200073746D3332200D0A000000002068657926
:10543000206A796F7468750D0A0000000000000092
:105440000000000001020304060708090000000034
:10545000010203040006101600061016232D302B3F
:105460002000686C4C006566674546470030313265
:1054700033343536373839414243444546003031BC
:10548000323334353637383961626364656600001B
:0854900020AEFF7F01000000C7
:04549800C501000842
:04549C00A101000862
:1054A0000024F400100000000100000010000020A3
:1054B00000000000000000000000000000000000EC
:1054C00000000000000000000000000000000000DC
:1054D00000000000000000000000000000000000CC
:1054E00000000000000000000000000000000000BC
:1054F00000000000000000000000000000000000AC
:10550000000000000000000000000000000000009B
:04000005080014F9E2
:00000001FF
